{
  "_format": "hh-sol-artifact-1",
  "contractName": "UltraAnon",
  "sourceName": "contracts/UltraAnon.sol",
  "abi": [
    {
      "inputs": [
        {
          "internalType": "uint32",
          "name": "_levels",
          "type": "uint32"
        },
        {
          "internalType": "address",
          "name": "_privateTransferVerifier",
          "type": "address"
        },
        {
          "internalType": "address",
          "name": "_publicTransferVerifier",
          "type": "address"
        }
      ],
      "stateMutability": "nonpayable",
      "type": "constructor"
    },
    {
      "inputs": [
        {
          "internalType": "address",
          "name": "spender",
          "type": "address"
        },
        {
          "internalType": "uint256",
          "name": "allowance",
          "type": "uint256"
        },
        {
          "internalType": "uint256",
          "name": "needed",
          "type": "uint256"
        }
      ],
      "name": "ERC20InsufficientAllowance",
      "type": "error"
    },
    {
      "inputs": [
        {
          "internalType": "address",
          "name": "sender",
          "type": "address"
        },
        {
          "internalType": "uint256",
          "name": "balance",
          "type": "uint256"
        },
        {
          "internalType": "uint256",
          "name": "needed",
          "type": "uint256"
        }
      ],
      "name": "ERC20InsufficientBalance",
      "type": "error"
    },
    {
      "inputs": [
        {
          "internalType": "address",
          "name": "approver",
          "type": "address"
        }
      ],
      "name": "ERC20InvalidApprover",
      "type": "error"
    },
    {
      "inputs": [
        {
          "internalType": "address",
          "name": "receiver",
          "type": "address"
        }
      ],
      "name": "ERC20InvalidReceiver",
      "type": "error"
    },
    {
      "inputs": [
        {
          "internalType": "address",
          "name": "sender",
          "type": "address"
        }
      ],
      "name": "ERC20InvalidSender",
      "type": "error"
    },
    {
      "inputs": [
        {
          "internalType": "address",
          "name": "spender",
          "type": "address"
        }
      ],
      "name": "ERC20InvalidSpender",
      "type": "error"
    },
    {
      "anonymous": false,
      "inputs": [
        {
          "indexed": true,
          "internalType": "address",
          "name": "owner",
          "type": "address"
        },
        {
          "indexed": true,
          "internalType": "address",
          "name": "spender",
          "type": "address"
        },
        {
          "indexed": false,
          "internalType": "uint256",
          "name": "value",
          "type": "uint256"
        }
      ],
      "name": "Approval",
      "type": "event"
    },
    {
      "anonymous": false,
      "inputs": [
        {
          "indexed": true,
          "internalType": "uint256",
          "name": "leaf",
          "type": "uint256"
        },
        {
          "indexed": false,
          "internalType": "uint32",
          "name": "leafIndex",
          "type": "uint32"
        },
        {
          "indexed": false,
          "internalType": "uint256",
          "name": "timestamp",
          "type": "uint256"
        }
      ],
      "name": "IncomBalNewLeaf",
      "type": "event"
    },
    {
      "anonymous": false,
      "inputs": [
        {
          "indexed": true,
          "internalType": "uint256",
          "name": "leaf",
          "type": "uint256"
        },
        {
          "indexed": false,
          "internalType": "uint32",
          "name": "leafIndex",
          "type": "uint32"
        },
        {
          "indexed": false,
          "internalType": "uint256",
          "name": "timestamp",
          "type": "uint256"
        }
      ],
      "name": "IncomBalUpdatedLeaf",
      "type": "event"
    },
    {
      "anonymous": false,
      "inputs": [
        {
          "indexed": true,
          "internalType": "uint256",
          "name": "nullifierKey",
          "type": "uint256"
        },
        {
          "indexed": false,
          "internalType": "uint256",
          "name": "amountSent",
          "type": "uint256"
        }
      ],
      "name": "NullifierAdded",
      "type": "event"
    },
    {
      "anonymous": false,
      "inputs": [
        {
          "indexed": true,
          "internalType": "uint256",
          "name": "leaf",
          "type": "uint256"
        },
        {
          "indexed": false,
          "internalType": "uint32",
          "name": "leafIndex",
          "type": "uint32"
        },
        {
          "indexed": false,
          "internalType": "uint256",
          "name": "timestamp",
          "type": "uint256"
        }
      ],
      "name": "ShadowNewLeaf",
      "type": "event"
    },
    {
      "anonymous": false,
      "inputs": [
        {
          "indexed": true,
          "internalType": "address",
          "name": "from",
          "type": "address"
        },
        {
          "indexed": true,
          "internalType": "address",
          "name": "to",
          "type": "address"
        },
        {
          "indexed": false,
          "internalType": "uint256",
          "name": "value",
          "type": "uint256"
        }
      ],
      "name": "Transfer",
      "type": "event"
    },
    {
      "inputs": [],
      "name": "FIELD_SIZE",
      "outputs": [
        {
          "internalType": "uint256",
          "name": "",
          "type": "uint256"
        }
      ],
      "stateMutability": "view",
      "type": "function"
    },
    {
      "inputs": [],
      "name": "ROOT_HISTORY_SIZE",
      "outputs": [
        {
          "internalType": "uint32",
          "name": "",
          "type": "uint32"
        }
      ],
      "stateMutability": "view",
      "type": "function"
    },
    {
      "inputs": [],
      "name": "ZERO_VALUE",
      "outputs": [
        {
          "internalType": "uint256",
          "name": "",
          "type": "uint256"
        }
      ],
      "stateMutability": "view",
      "type": "function"
    },
    {
      "inputs": [
        {
          "internalType": "address",
          "name": "account",
          "type": "address"
        }
      ],
      "name": "balanceOf",
      "outputs": [
        {
          "internalType": "uint256",
          "name": "",
          "type": "uint256"
        }
      ],
      "stateMutability": "view",
      "type": "function"
    },
    {
      "inputs": [],
      "name": "decimals",
      "outputs": [
        {
          "internalType": "uint8",
          "name": "",
          "type": "uint8"
        }
      ],
      "stateMutability": "view",
      "type": "function"
    },
    {
      "inputs": [
        {
          "internalType": "address",
          "name": "_address",
          "type": "address"
        },
        {
          "internalType": "uint256",
          "name": "_balance",
          "type": "uint256"
        }
      ],
      "name": "hashIncomBalTreeLeaf",
      "outputs": [
        {
          "internalType": "uint256",
          "name": "",
          "type": "uint256"
        }
      ],
      "stateMutability": "pure",
      "type": "function"
    },
    {
      "inputs": [
        {
          "internalType": "uint256",
          "name": "_left",
          "type": "uint256"
        },
        {
          "internalType": "uint256",
          "name": "_right",
          "type": "uint256"
        }
      ],
      "name": "hashLeftRight",
      "outputs": [
        {
          "internalType": "uint256",
          "name": "",
          "type": "uint256"
        }
      ],
      "stateMutability": "pure",
      "type": "function"
    },
    {
      "inputs": [
        {
          "internalType": "uint256",
          "name": "nullifierKey",
          "type": "uint256"
        },
        {
          "internalType": "uint256",
          "name": "nullifierValue",
          "type": "uint256"
        }
      ],
      "name": "hashShadowBalanceLeaf",
      "outputs": [
        {
          "internalType": "uint256",
          "name": "",
          "type": "uint256"
        }
      ],
      "stateMutability": "pure",
      "type": "function"
    },
    {
      "inputs": [
        {
          "internalType": "uint256",
          "name": "",
          "type": "uint256"
        },
        {
          "internalType": "uint256",
          "name": "",
          "type": "uint256"
        }
      ],
      "name": "incomBalAllFilledSubtrees",
      "outputs": [
        {
          "internalType": "uint256",
          "name": "",
          "type": "uint256"
        }
      ],
      "stateMutability": "view",
      "type": "function"
    },
    {
      "inputs": [],
      "name": "incomBalCurrentRootIndex",
      "outputs": [
        {
          "internalType": "uint32",
          "name": "",
          "type": "uint32"
        }
      ],
      "stateMutability": "view",
      "type": "function"
    },
    {
      "inputs": [],
      "name": "incomBalGetLastRoot",
      "outputs": [
        {
          "internalType": "uint256",
          "name": "",
          "type": "uint256"
        }
      ],
      "stateMutability": "view",
      "type": "function"
    },
    {
      "inputs": [
        {
          "internalType": "uint256",
          "name": "_root",
          "type": "uint256"
        }
      ],
      "name": "incomBalIsKnownRoot",
      "outputs": [
        {
          "internalType": "bool",
          "name": "",
          "type": "bool"
        }
      ],
      "stateMutability": "view",
      "type": "function"
    },
    {
      "inputs": [],
      "name": "incomBalNextIndex",
      "outputs": [
        {
          "internalType": "uint32",
          "name": "",
          "type": "uint32"
        }
      ],
      "stateMutability": "view",
      "type": "function"
    },
    {
      "inputs": [
        {
          "internalType": "uint256",
          "name": "",
          "type": "uint256"
        }
      ],
      "name": "incomBalRoots",
      "outputs": [
        {
          "internalType": "uint256",
          "name": "",
          "type": "uint256"
        }
      ],
      "stateMutability": "view",
      "type": "function"
    },
    {
      "inputs": [],
      "name": "levels",
      "outputs": [
        {
          "internalType": "uint32",
          "name": "",
          "type": "uint32"
        }
      ],
      "stateMutability": "view",
      "type": "function"
    },
    {
      "inputs": [
        {
          "internalType": "address",
          "name": "",
          "type": "address"
        }
      ],
      "name": "merkleIndexOfAccount",
      "outputs": [
        {
          "internalType": "uint32",
          "name": "",
          "type": "uint32"
        }
      ],
      "stateMutability": "view",
      "type": "function"
    },
    {
      "inputs": [
        {
          "internalType": "address",
          "name": "account",
          "type": "address"
        },
        {
          "internalType": "uint256",
          "name": "value",
          "type": "uint256"
        }
      ],
      "name": "mint",
      "outputs": [],
      "stateMutability": "nonpayable",
      "type": "function"
    },
    {
      "inputs": [],
      "name": "name",
      "outputs": [
        {
          "internalType": "string",
          "name": "",
          "type": "string"
        }
      ],
      "stateMutability": "view",
      "type": "function"
    },
    {
      "inputs": [
        {
          "internalType": "uint256",
          "name": "",
          "type": "uint256"
        }
      ],
      "name": "nullifiers",
      "outputs": [
        {
          "internalType": "uint256",
          "name": "",
          "type": "uint256"
        }
      ],
      "stateMutability": "view",
      "type": "function"
    },
    {
      "inputs": [
        {
          "internalType": "address",
          "name": "to",
          "type": "address"
        },
        {
          "internalType": "uint256",
          "name": "value",
          "type": "uint256"
        },
        {
          "internalType": "uint256",
          "name": "nullifierValue",
          "type": "uint256"
        },
        {
          "internalType": "uint256",
          "name": "nullifierKey",
          "type": "uint256"
        },
        {
          "internalType": "uint256",
          "name": "shadowBalanceRoot",
          "type": "uint256"
        },
        {
          "internalType": "uint256",
          "name": "incomingBalanceRoot",
          "type": "uint256"
        },
        {
          "internalType": "bytes",
          "name": "proof",
          "type": "bytes"
        }
      ],
      "name": "privateTransfer",
      "outputs": [
        {
          "internalType": "bool",
          "name": "",
          "type": "bool"
        }
      ],
      "stateMutability": "nonpayable",
      "type": "function"
    },
    {
      "inputs": [],
      "name": "privateTransferVerifier",
      "outputs": [
        {
          "internalType": "address",
          "name": "",
          "type": "address"
        }
      ],
      "stateMutability": "view",
      "type": "function"
    },
    {
      "inputs": [
        {
          "internalType": "address",
          "name": "to",
          "type": "address"
        },
        {
          "internalType": "uint256",
          "name": "value",
          "type": "uint256"
        },
        {
          "internalType": "uint256",
          "name": "nullifierValue",
          "type": "uint256"
        },
        {
          "internalType": "uint256",
          "name": "nullifierKey",
          "type": "uint256"
        },
        {
          "internalType": "uint256",
          "name": "shadowBalanceRoot",
          "type": "uint256"
        },
        {
          "internalType": "uint256",
          "name": "incomingBalanceRoot",
          "type": "uint256"
        },
        {
          "internalType": "address",
          "name": "owner",
          "type": "address"
        },
        {
          "internalType": "bytes",
          "name": "proof",
          "type": "bytes"
        }
      ],
      "name": "publicTransfer",
      "outputs": [
        {
          "internalType": "bool",
          "name": "",
          "type": "bool"
        }
      ],
      "stateMutability": "nonpayable",
      "type": "function"
    },
    {
      "inputs": [],
      "name": "publicTransferVerifier",
      "outputs": [
        {
          "internalType": "address",
          "name": "",
          "type": "address"
        }
      ],
      "stateMutability": "view",
      "type": "function"
    },
    {
      "inputs": [],
      "name": "shadowCurrentRootIndex",
      "outputs": [
        {
          "internalType": "uint32",
          "name": "",
          "type": "uint32"
        }
      ],
      "stateMutability": "view",
      "type": "function"
    },
    {
      "inputs": [
        {
          "internalType": "uint256",
          "name": "",
          "type": "uint256"
        }
      ],
      "name": "shadowFilledSubtrees",
      "outputs": [
        {
          "internalType": "uint256",
          "name": "",
          "type": "uint256"
        }
      ],
      "stateMutability": "view",
      "type": "function"
    },
    {
      "inputs": [],
      "name": "shadowGetLastRoot",
      "outputs": [
        {
          "internalType": "uint256",
          "name": "",
          "type": "uint256"
        }
      ],
      "stateMutability": "view",
      "type": "function"
    },
    {
      "inputs": [
        {
          "internalType": "uint256",
          "name": "_root",
          "type": "uint256"
        }
      ],
      "name": "shadowIsKnownRoot",
      "outputs": [
        {
          "internalType": "bool",
          "name": "",
          "type": "bool"
        }
      ],
      "stateMutability": "view",
      "type": "function"
    },
    {
      "inputs": [],
      "name": "shadowNextIndex",
      "outputs": [
        {
          "internalType": "uint32",
          "name": "",
          "type": "uint32"
        }
      ],
      "stateMutability": "view",
      "type": "function"
    },
    {
      "inputs": [
        {
          "internalType": "uint256",
          "name": "",
          "type": "uint256"
        }
      ],
      "name": "shadowRoots",
      "outputs": [
        {
          "internalType": "uint256",
          "name": "",
          "type": "uint256"
        }
      ],
      "stateMutability": "view",
      "type": "function"
    },
    {
      "inputs": [],
      "name": "symbol",
      "outputs": [
        {
          "internalType": "string",
          "name": "",
          "type": "string"
        }
      ],
      "stateMutability": "view",
      "type": "function"
    },
    {
      "inputs": [],
      "name": "totalSupply",
      "outputs": [
        {
          "internalType": "uint256",
          "name": "",
          "type": "uint256"
        }
      ],
      "stateMutability": "view",
      "type": "function"
    },
    {
      "inputs": [
        {
          "internalType": "uint256",
          "name": "i",
          "type": "uint256"
        }
      ],
      "name": "zeros",
      "outputs": [
        {
          "internalType": "uint256",
          "name": "",
          "type": "uint256"
        }
      ],
      "stateMutability": "pure",
      "type": "function"
    }
  ],
  "bytecode": "0x6080604052600880546001600160401b0319908116909155600b8054909116905534801561002c57600080fd5b506040516130f93803806130f983398101604081905261004b91610938565b82604051806040016040528060098152602001682ab63a3930a0b737b760b91b815250604051806040016040528060048152602001632aa62a2960e11b815250816003908161009a9190610a25565b5060046100a78282610a25565b50505060008163ffffffff16116101115760405162461bcd60e51b815260206004820152602360248201527f5f6c6576656c732073686f756c642062652067726561746572207468616e207a60448201526265726f60e81b60648201526084015b60405180910390fd5b60208163ffffffff16106101675760405162461bcd60e51b815260206004820152601e60248201527f5f6c6576656c732073686f756c64206265206c657373207468616e20333200006044820152606401610108565b6005805463ffffffff191663ffffffff9290921691909117905560005b60055463ffffffff90811690821610156101d0576101a763ffffffff82166102c4565b63ffffffff82166000908152600960209081526040808320838052909152902055600101610184565b506005546101e39063ffffffff166102c4565b6000808052600a6020527f13da86008ba1c6922daee3e07db95305ef49ebced9f5467a0b8613fcc6b343e3919091555b60055463ffffffff90811690821610156102545761023663ffffffff82166102c4565b63ffffffff8216600090815260066020526040902055600101610213565b506005546102679063ffffffff166102c4565b6000805260076020527f6d5257204ebe7d88fd91ae87941cb2dd9d8062b64ae5a2bd2d28ec40b9fbf6df55600e80546001600160a01b039384166001600160a01b031991821617909155600f805492909316911617905550610ae3565b6000816000036102f557507f2fe54c60d3acabf3343a35b6eba15db4821b340f76e741e2249685ed4899af6c919050565b8160010361032457507f13e37f2d6cb86c78ccc1788607c2b199788c6bb0a615a21f2e7a8e88384222f8919050565b8160020361035357507f217126fa352c326896e8c2803eec8fd63ad50cf65edfef27a41a9e32dc622765919050565b8160030361038257507f0e28a61a9b3e91007d5a9e3ada18e1b24d6d230c618388ee5df34cacd7397eee919050565b816004036103b157507f27953447a6979839536badc5425ed15fadb0e292e9bc36f92f0aa5cfa5013587919050565b816005036103e057507f194191edbfb91d10f6a7afd315f33095410c7801c47175c2df6dc2cce0e3affc919050565b8160060361040f57507f1733dece17d71190516dbaf1927936fa643dc7079fc0cc731de9d6845a47741f919050565b8160070361043e57507f267855a7dc75db39d81d17f95d0a7aa572bf5ae19f4db0e84221d2b2ef999219919050565b8160080361046d57507f1184e11836b4c36ad8238a340ecc0985eeba665327e33e9b0e3641027c27620d919050565b8160090361049c57507f0702ab83a135d7f55350ab1bfaa90babd8fc1d2b3e6a7215381a7b2213d6c5ce919050565b81600a036104cb57507f2eecc0de814cfd8c57ce882babb2e30d1da56621aef7a47f3291cffeaec26ad7919050565b81600b036104fa57507f280bc02145c155d5833585b6c7b08501055157dd30ce005319621dc462d33b47919050565b81600c0361052957507f045132221d1fa0a7f4aed8acd2cbec1e2189b7732ccb2ec272b9c60f0d5afc5b919050565b81600d0361055857507f27f427ccbf58a44b1270abbe4eda6ba53bd6ac4d88cf1e00a13c4371ce71d366919050565b81600e0361058757507f1617eaae5064f26e8f8a6493ae92bfded7fde71b65df1ca6d5dcec0df70b2cef919050565b81600f036105b657507f20c6b400d0ea1b15435703c31c31ee63ad7ba5c8da66cec2796feacea575abca919050565b816010036105e557507f09589ddb438723f53a8e57bdada7c5f8ed67e8fece3889a73618732965645eec919050565b8160110361061357507e64b6a738a5ff537db7b220f3394f0ecbd35bfd355c5425dc1166bf3236079b919050565b8160120361064257507f095de56281b1d5055e897c3574ff790d5ee81dbc5df784ad2d67795e557c9e9f919050565b8160130361067157507f11cf2e2887aa21963a6ec14289183efe4d4c60f14ecd3d6fe0beebdf855a9b63919050565b816014036106a057507f2b0f6fc0179fa65b6f73627c0e1e84c7374d2eaec44c9a48f2571393ea77bcbb919050565b816015036106cf57507f16fdb637c2abf9c0f988dbf2fd64258c46fb6a273d537b2cf1603ea460b13279919050565b816016036106fe57507f21bbd7e944f6124dad4c376df9cc12e7ca66e47dff703ff7cedb1a454edcf0ff919050565b8160170361072d57507f2784f8220b1c963e468f590f137baaa1625b3b92a27ad9b6e84eb0d3454d9962919050565b8160180361075c57507f16ace1a65b7534142f8cc1aad810b3d6a7a74ca905d9c275cb98ba57e509fc10919050565b8160190361078b57507f2328068c6a8c24265124debd8fe10d3f29f0665ea725a65e3638f6192a96a013919050565b81601a036107ba57507f2ddb991be1f028022411b4c4d2c22043e5e751c120736f00adf54acab1c9ac14919050565b81601b036107e957507f0113798410eaeb95056a464f70521eb58377c0155f2fe518a5594d38cc209cc0919050565b81601c0361081857507f202d1ae61526f0d0d01ef80fb5d4055a7af45721024c2c24cffd6a3798f54d50919050565b81601d0361084757507f23ab323453748129f2765f79615022f5bebd6f4096a796300aab049a60b0f187919050565b81601e0361087657507f1f15585f8947e378bcf8bd918716799da909acdb944c57150b1eb4565fda8aa0919050565b81601f036108a557507f1eb064b21055ac6a350cf41eb30e4ce2cb19680217df3a243617c2838185ad06919050565b816020036108d457507f25a90efc49af54a5b7154a6eaba978dcf04796b4984fe54be8d4ea8579e1f1e6919050565b60405162461bcd60e51b815260206004820152601360248201527f496e646578206f7574206f6620626f756e6473000000000000000000000000006044820152606401610108565b919050565b80516001600160a01b038116811461091c57600080fd5b60008060006060848603121561094d57600080fd5b835163ffffffff8116811461096157600080fd5b925061096f60208501610921565b915061097d60408501610921565b90509250925092565b634e487b7160e01b600052604160045260246000fd5b600181811c908216806109b057607f821691505b6020821081036109d057634e487b7160e01b600052602260045260246000fd5b50919050565b601f821115610a2057806000526020600020601f840160051c810160208510156109fd5750805b601f840160051c820191505b81811015610a1d5760008155600101610a09565b50505b505050565b81516001600160401b03811115610a3e57610a3e610986565b610a5281610a4c845461099c565b846109d6565b6020601f821160018114610a865760008315610a6e5750848201515b600019600385901b1c1916600184901b178455610a1d565b600084815260208120601f198516915b82811015610ab65787850151825560209485019460019092019101610a96565b5084821015610ad45786840151600019600387901b60f8161c191681555b50505050600190811b01905550565b61260780610af26000396000f3fe608060405234801561001057600080fd5b50600436106101f05760003560e01c806370a082311161010f578063a1a89233116100a2578063d21e82ab11610071578063d21e82ab146104ba578063e8295588146104da578063ec732959146104ed578063fa0898c51461051457600080fd5b8063a1a8923314610465578063b68ca16014610482578063cb63db6c14610495578063cd87a3b4146104b257600080fd5b806395d89b41116100de57806395d89b411461041c578063970c2a75146104245780639752e9181461043b578063997c64561461045257600080fd5b806370a08231146103a757806372162b12146103d05780637264388a146103e3578063954c80591461040957600080fd5b80634be3870f116101875780635bb93995116101565780635bb939951461034457806366cb3dbd1461035757806368868188146103675780636fddf9681461038757600080fd5b80634be3870f146102cb5780634c58724d146102f65780634ecf518b146103215780635752fa941461033157600080fd5b80633a8f94dd116101c35780633a8f94dd1461025757806340c10f191461027c578063414a37ba146102915780634438219b146102b857600080fd5b806306fdde03146101f55780630cebebdd1461021357806318160ddd14610236578063313ce56714610248575b600080fd5b6101fd610534565b60405161020a9190611e8f565b60405180910390f35b610226610221366004611f3d565b6105c6565b604051901515815260200161020a565b6002545b60405190815260200161020a565b6040516012815260200161020a565b600b546102679063ffffffff1681565b60405163ffffffff909116815260200161020a565b61028f61028a366004611fc1565b610730565b005b61023a7f30644e72e131a029b85045b68181585d2833e84879b9709143e1f593f000000181565b61023a6102c6366004611fc1565b61073e565b61023a6102d9366004611feb565b600960209081526000928352604080842090915290825290205481565b600f54610309906001600160a01b031681565b6040516001600160a01b03909116815260200161020a565b6005546102679063ffffffff1681565b61022661033f36600461200d565b6107df565b61023a610352366004611feb565b6108b7565b6008546102679063ffffffff1681565b61023a6103753660046120a5565b600a6020526000908152604090205481565b61023a6103953660046120a5565b60076020526000908152604090205481565b61023a6103b53660046120be565b6001600160a01b031660009081526020819052604090205490565b6102266103de3660046120a5565b6109ea565b6102676103f13660046120be565b600c6020526000908152604090205463ffffffff1681565b600e54610309906001600160a01b031681565b6101fd610a69565b600b5461026790600160201b900463ffffffff1681565b60085461026790600160201b900463ffffffff1681565b6102266104603660046120a5565b610a78565b60085463ffffffff1660009081526007602052604090205461023a565b61023a610490366004611feb565b610af7565b600b5463ffffffff166000908152600a602052604090205461023a565b610267601e81565b61023a6104c83660046120a5565b600d6020526000908152604090205481565b61023a6104e83660046120a5565b610b44565b61023a7f2fe54c60d3acabf3343a35b6eba15db4821b340f76e741e2249685ed4899af6c81565b61023a6105223660046120a5565b60066020526000908152604090205481565b606060038054610543906120e0565b80601f016020809104026020016040519081016040528092919081815260200182805461056f906120e0565b80156105bc5780601f10610591576101008083540402835291602001916105bc565b820191906000526020600020905b81548152906001019060200180831161059f57829003601f168201915b5050505050905090565b60006105d185610a78565b6105f65760405162461bcd60e51b81526004016105ed9061211a565b60405180910390fd5b6105ff846109ea565b61061b5760405162461bcd60e51b81526004016105ed9061218c565b6106258688611197565b857f4e1b4529b925ec4a9216cd7d8b99e562e336ec79017aab97c82f3ed2aaa4a66f8960405161065791815260200190565b60405180910390a26001600160a01b038916600090815260208190526040902054610683908990612216565b6001600160a01b038a1660009081526020819052604090208190556106b4908a906106af908b90612216565b61121f565b6040518881526001600160a01b038a16906000907fddf252ad1be2c89b69c2b068fc378daa952ba7f163c4a11628f55a4df523b3ef9060200160405180910390a361070588888888888e89896112bb565b6107215760405162461bcd60e51b81526004016105ed90612229565b50600198975050505050505050565b61073a828261143e565b5050565b6040805180820182526001600160a01b0384168152602081018390529051632b0aac7f60e11b81526000919073__$75f79a42d9bcbdbb69ad79ebd80f556f39$__9063561558fe9061079490849060040161229a565b602060405180830381865af41580156107b1573d6000803e3d6000fd5b505050506040513d601f19601f820116820180604052508101906107d591906122cb565b9150505b92915050565b60006107ea86610a78565b6108065760405162461bcd60e51b81526004016105ed9061211a565b61080f856109ea565b61082b5760405162461bcd60e51b81526004016105ed9061218c565b6108358789611197565b867f4e1b4529b925ec4a9216cd7d8b99e562e336ec79017aab97c82f3ed2aaa4a66f8a60405161086791815260200190565b60405180910390a261087a848b8b611474565b61088b89898989898f8a8a8a6114d8565b6108a75760405162461bcd60e51b81526004016105ed90612229565b5060019998505050505050505050565b60007f30644e72e131a029b85045b68181585d2833e84879b9709143e1f593f000000183106109285760405162461bcd60e51b815260206004820181905260248201527f5f6c6566742073686f756c6420626520696e7369646520746865206669656c6460448201526064016105ed565b7f30644e72e131a029b85045b68181585d2833e84879b9709143e1f593f000000182106109a15760405162461bcd60e51b815260206004820152602160248201527f5f72696768742073686f756c6420626520696e7369646520746865206669656c6044820152601960fa1b60648201526084016105ed565b604080518082018252848152602081018490529051632b0aac7f60e11b815273__$75f79a42d9bcbdbb69ad79ebd80f556f39$__9063561558fe9061079490849060040161229a565b6000816000036109fc57506000919050565b600b5463ffffffff16805b63ffffffff81166000908152600a60205260409020548403610a2d575060019392505050565b8063ffffffff16600003610a3f5750601e5b80610a49816122e4565b9150508163ffffffff168163ffffffff1603610a07575060009392505050565b606060048054610543906120e0565b600081600003610a8a57506000919050565b60085463ffffffff16805b63ffffffff81166000908152600760205260409020548403610abb575060019392505050565b8063ffffffff16600003610acd5750601e5b80610ad7816122e4565b9150508163ffffffff168163ffffffff1603610a95575060009392505050565b604080518082018252838152602081018390529051632b0aac7f60e11b81526000919073__$75f79a42d9bcbdbb69ad79ebd80f556f39$__9063561558fe9061079490849060040161229a565b600081600003610b7557507f2fe54c60d3acabf3343a35b6eba15db4821b340f76e741e2249685ed4899af6c919050565b81600103610ba457507f13e37f2d6cb86c78ccc1788607c2b199788c6bb0a615a21f2e7a8e88384222f8919050565b81600203610bd357507f217126fa352c326896e8c2803eec8fd63ad50cf65edfef27a41a9e32dc622765919050565b81600303610c0257507f0e28a61a9b3e91007d5a9e3ada18e1b24d6d230c618388ee5df34cacd7397eee919050565b81600403610c3157507f27953447a6979839536badc5425ed15fadb0e292e9bc36f92f0aa5cfa5013587919050565b81600503610c6057507f194191edbfb91d10f6a7afd315f33095410c7801c47175c2df6dc2cce0e3affc919050565b81600603610c8f57507f1733dece17d71190516dbaf1927936fa643dc7079fc0cc731de9d6845a47741f919050565b81600703610cbe57507f267855a7dc75db39d81d17f95d0a7aa572bf5ae19f4db0e84221d2b2ef999219919050565b81600803610ced57507f1184e11836b4c36ad8238a340ecc0985eeba665327e33e9b0e3641027c27620d919050565b81600903610d1c57507f0702ab83a135d7f55350ab1bfaa90babd8fc1d2b3e6a7215381a7b2213d6c5ce919050565b81600a03610d4b57507f2eecc0de814cfd8c57ce882babb2e30d1da56621aef7a47f3291cffeaec26ad7919050565b81600b03610d7a57507f280bc02145c155d5833585b6c7b08501055157dd30ce005319621dc462d33b47919050565b81600c03610da957507f045132221d1fa0a7f4aed8acd2cbec1e2189b7732ccb2ec272b9c60f0d5afc5b919050565b81600d03610dd857507f27f427ccbf58a44b1270abbe4eda6ba53bd6ac4d88cf1e00a13c4371ce71d366919050565b81600e03610e0757507f1617eaae5064f26e8f8a6493ae92bfded7fde71b65df1ca6d5dcec0df70b2cef919050565b81600f03610e3657507f20c6b400d0ea1b15435703c31c31ee63ad7ba5c8da66cec2796feacea575abca919050565b81601003610e6557507f09589ddb438723f53a8e57bdada7c5f8ed67e8fece3889a73618732965645eec919050565b81601103610e9357507e64b6a738a5ff537db7b220f3394f0ecbd35bfd355c5425dc1166bf3236079b919050565b81601203610ec257507f095de56281b1d5055e897c3574ff790d5ee81dbc5df784ad2d67795e557c9e9f919050565b81601303610ef157507f11cf2e2887aa21963a6ec14289183efe4d4c60f14ecd3d6fe0beebdf855a9b63919050565b81601403610f2057507f2b0f6fc0179fa65b6f73627c0e1e84c7374d2eaec44c9a48f2571393ea77bcbb919050565b81601503610f4f57507f16fdb637c2abf9c0f988dbf2fd64258c46fb6a273d537b2cf1603ea460b13279919050565b81601603610f7e57507f21bbd7e944f6124dad4c376df9cc12e7ca66e47dff703ff7cedb1a454edcf0ff919050565b81601703610fad57507f2784f8220b1c963e468f590f137baaa1625b3b92a27ad9b6e84eb0d3454d9962919050565b81601803610fdc57507f16ace1a65b7534142f8cc1aad810b3d6a7a74ca905d9c275cb98ba57e509fc10919050565b8160190361100b57507f2328068c6a8c24265124debd8fe10d3f29f0665ea725a65e3638f6192a96a013919050565b81601a0361103a57507f2ddb991be1f028022411b4c4d2c22043e5e751c120736f00adf54acab1c9ac14919050565b81601b0361106957507f0113798410eaeb95056a464f70521eb58377c0155f2fe518a5594d38cc209cc0919050565b81601c0361109857507f202d1ae61526f0d0d01ef80fb5d4055a7af45721024c2c24cffd6a3798f54d50919050565b81601d036110c757507f23ab323453748129f2765f79615022f5bebd6f4096a796300aab049a60b0f187919050565b81601e036110f657507f1f15585f8947e378bcf8bd918716799da909acdb944c57150b1eb4565fda8aa0919050565b81601f0361112557507f1eb064b21055ac6a350cf41eb30e4ce2cb19680217df3a243617c2838185ad06919050565b8160200361115457507f25a90efc49af54a5b7154a6eaba978dcf04796b4984fe54be8d4ea8579e1f1e6919050565b60405162461bcd60e51b8152602060048201526013602482015272496e646578206f7574206f6620626f756e647360681b60448201526064016105ed565b919050565b6000828152600d6020526040902054156111f35760405162461bcd60e51b815260206004820152601f60248201527f6e756c6c69666965724b65792063616e7420626520757365642074776963650060448201526064016105ed565b6000828152600d6020526040812082905561120e8383610af7565b905061121981611689565b50505050565b6001600160a01b0382166000908152600c602052604081205463ffffffff1690611249848461073e565b90508163ffffffff166000036112a75760006112648261183d565b9050611271816001612304565b6001600160a01b0386166000908152600c60205260409020805463ffffffff191663ffffffff9290921691909117905550611219565b611219816112b6600185612320565b611a77565b60408051600680825260e082019092526000918291906020820160c0803683370190505090508960001b816000815181106112f8576112f861233c565b6020026020010181815250508860001b8160018151811061131b5761131b61233c565b6020026020010181815250508760001b8160028151811061133e5761133e61233c565b6020026020010181815250508660001b816003815181106113615761136161233c565b6020026020010181815250508560001b816004815181106113845761138461233c565b602002602001018181525050846001600160a01b031660001b816005815181106113b0576113b061233c565b6020908102919091010152600e54604051633a94343960e21b81526001600160a01b039091169063ea50d0e4906113ef90879087908690600401612352565b602060405180830381865afa15801561140c573d6000803e3d6000fd5b505050506040513d601f19601f8201168201806040525081019061143091906123cd565b9a9950505050505050505050565b6001600160a01b0382166114685760405163ec442f0560e01b8152600060048201526024016105ed565b61073a60008383611d58565b6001600160a01b03831661149e57604051634b637e8f60e11b8152600060048201526024016105ed565b6001600160a01b0382166114c85760405163ec442f0560e01b8152600060048201526024016105ed565b6114d3838383611d58565b505050565b60408051600780825261010082019092526000918291906020820160e0803683370190505090508a60001b816000815181106115165761151661233c565b6020026020010181815250508960001b816001815181106115395761153961233c565b6020026020010181815250508860001b8160028151811061155c5761155c61233c565b6020026020010181815250508760001b8160038151811061157f5761157f61233c565b6020026020010181815250508660001b816004815181106115a2576115a261233c565b602002602001018181525050856001600160a01b031660001b816005815181106115ce576115ce61233c565b602002602001018181525050846001600160a01b031660001b816006815181106115fa576115fa61233c565b6020908102919091010152600f54604051633a94343960e21b81526001600160a01b039091169063ea50d0e49061163990879087908690600401612352565b602060405180830381865afa158015611656573d6000803e3d6000fd5b505050506040513d601f19601f8201168201806040525081019061167a91906123cd565b9b9a5050505050505050505050565b60085460055460009163ffffffff600160201b9091048116916116ae91166002612503565b63ffffffff168163ffffffff16036116d85760405162461bcd60e51b81526004016105ed9061251b565b8083600080805b60055463ffffffff9081169082161015611779576116fe600286612581565b63ffffffff1660000361173c5783925061171d8163ffffffff16610b44565b63ffffffff821660009081526006602052604090208590559150611758565b63ffffffff811660009081526006602052604090205492508391505b61176283836108b7565b935061176f6002866125a9565b94506001016116df565b50600854600090601e906117949063ffffffff166001612304565b61179e9190612581565b6008805463ffffffff191663ffffffff8316908117909155600090815260076020526040902085905590506117d4866001612304565b6008805467ffffffff000000001916600160201b63ffffffff9384160217905560408051918816825242602083015289917fbbbd917bb32216a8f5910e98c84aff812c3a68defc2e2e31a048b49630a1df6191015b60405180910390a250939695505050505050565b600b5460055460009163ffffffff600160201b90910481169161186291166002612503565b63ffffffff168163ffffffff160361188c5760405162461bcd60e51b81526004016105ed9061251b565b8083600080805b60055463ffffffff90811690821610156119c35763ffffffff80821660009081526009602090815260408083209389168352929052208490556118d7600286612581565b63ffffffff166000036118fd578392506118f68163ffffffff16610b44565b91506119a2565b63ffffffff811660009081526009602052604081209061191e600188612320565b63ffffffff168152602001908152602001600020549250839150826000036119a25760405162461bcd60e51b815260206004820152603160248201527f63616e7420757365206120302076616c75652066726f6d20696e636f6d42616c604482015270416c6c46696c6c6564537562747265657360781b60648201526084016105ed565b6119ac83836108b7565b93506119b96002866125a9565b9450600101611893565b50600b54600090601e906119de9063ffffffff166001612304565b6119e89190612581565b600b805463ffffffff191663ffffffff83169081179091556000908152600a602052604090208590559050611a1e866001612304565b600b805467ffffffff000000001916600160201b63ffffffff9384160217905560408051918816825242602083015289917f637a5aaba41d5c887c8292afda36e44fb2ddab99ecdf6618688ffd61148945399101611829565b600b5463ffffffff600160201b909104811690821610611ad95760405162461bcd60e51b815260206004820152601f60248201527f63616e206f6e6c7920757064617465206578697374696e672076616c7565730060448201526064016105ed565b8082600080805b60055463ffffffff9081169082161015611cc05763ffffffff8082166000908152600960209081526040808320938916835292905220849055611b24600286612581565b63ffffffff16600003611bf85763ffffffff8116600090815260096020526040812085945090611b55876001612304565b63ffffffff16815260200190815260200160002054915081600003611b8657611b838163ffffffff16610b44565b91505b81600003611bf35760405162461bcd60e51b815260206004820152603460248201527f72696768742063616e7420626520302076616c75652066726f6d20696e636f6d60448201527342616c416c6c46696c6c6564537562747265657360601b60648201526084016105ed565b611c9f565b63ffffffff8116600090815260096020526040812090611c19600188612320565b63ffffffff16815260200190815260200160002054925083915082600003611c9f5760405162461bcd60e51b815260206004820152603360248201527f6c6566742063616e7420626520302076616c75652066726f6d20696e636f6d42604482015272616c416c6c46696c6c6564537562747265657360681b60648201526084016105ed565b611ca983836108b7565b9350611cb66002866125a9565b9450600101611ae0565b50600b54600090601e90611cdb9063ffffffff166001612304565b611ce59190612581565b600b805463ffffffff191663ffffffff8381169182179092556000908152600a60209081526040918290208890558151928a168352429083015291925088917fe91751ae15e5bd4bb233331b7681684c1e0e29af86cd07cc247f960173365137910160405180910390a250505050505050565b6001600160a01b038316611d83578060026000828254611d789190612216565b90915550611df59050565b6001600160a01b03831660009081526020819052604090205481811015611dd65760405163391434e360e21b81526001600160a01b038516600482015260248101829052604481018390526064016105ed565b6001600160a01b03841660009081526020819052604090209082900390555b6001600160a01b038216611e1157600280548290039055611e3d565b6001600160a01b03821660009081526020819052604090208054820190819055611e3b838261121f565b505b816001600160a01b0316836001600160a01b03167fddf252ad1be2c89b69c2b068fc378daa952ba7f163c4a11628f55a4df523b3ef83604051611e8291815260200190565b60405180910390a3505050565b602081526000825180602084015260005b81811015611ebd5760208186018101516040868401015201611ea0565b506000604082850101526040601f19601f83011684010191505092915050565b80356001600160a01b038116811461119257600080fd5b60008083601f840112611f0657600080fd5b50813567ffffffffffffffff811115611f1e57600080fd5b602083019150836020828501011115611f3657600080fd5b9250929050565b60008060008060008060008060e0898b031215611f5957600080fd5b611f6289611edd565b97506020890135965060408901359550606089013594506080890135935060a0890135925060c089013567ffffffffffffffff811115611fa157600080fd5b611fad8b828c01611ef4565b999c989b5096995094979396929594505050565b60008060408385031215611fd457600080fd5b611fdd83611edd565b946020939093013593505050565b60008060408385031215611ffe57600080fd5b50508035926020909101359150565b60008060008060008060008060006101008a8c03121561202c57600080fd5b6120358a611edd565b985060208a0135975060408a0135965060608a0135955060808a0135945060a08a0135935061206660c08b01611edd565b925060e08a013567ffffffffffffffff81111561208257600080fd5b61208e8c828d01611ef4565b915080935050809150509295985092959850929598565b6000602082840312156120b757600080fd5b5035919050565b6000602082840312156120d057600080fd5b6120d982611edd565b9392505050565b600181811c908216806120f457607f821691505b60208210810361211457634e487b7160e01b600052602260045260246000fd5b50919050565b6020808252604c908201527f736861646f7742616c616e636520726f6f74206973206e6f74206b6e6f776e2060408201527f62792074686520636f6e74726163742e2049747320656974686572207374616c60608201526b19481bdc881a5b9d985b1a5960a21b608082015260a00190565b6020808252604e908201527f696e636f6d696e6742616c616e636520726f6f74206973206e6f74206b6e6f7760408201527f6e2062792074686520636f6e74726163742e204974732065697468657220737460608201526d185b19481bdc881a5b9d985b1a5960921b608082015260a00190565b634e487b7160e01b600052601160045260246000fd5b808201808211156107d9576107d9612200565b6020808252604b908201527f576173206e6f742061626c6520746f207665726966792070726f6f662e204f7760408201527f6e6572206d69676874206e6f74206861766520656e6f7567682066756e64732060608201526a3a37903a3930b739b332b960a91b608082015260a00190565b60408101818360005b60028110156122c25781518352602092830192909101906001016122a3565b50505092915050565b6000602082840312156122dd57600080fd5b5051919050565b600063ffffffff8216806122fa576122fa612200565b6000190192915050565b63ffffffff81811683821601908111156107d9576107d9612200565b63ffffffff82811682821603908111156107d9576107d9612200565b634e487b7160e01b600052603260045260246000fd5b60408152826040820152828460608301376000606084830101526000601f19601f8501168201606081016060848303016020850152808551808352608084019150602087019350600092505b808310156123c1578351825260208201915060208401935060018301925061239e565b50979650505050505050565b6000602082840312156123df57600080fd5b815180151581146120d957600080fd5b6001815b600184111561242a5780850481111561240e5761240e612200565b600184161561241c57908102905b60019390931c9280026123f3565b935093915050565b600082612441575060016107d9565b8161244e575060006107d9565b8160018114612464576002811461246e5761249f565b60019150506107d9565b60ff84111561247f5761247f612200565b6001841b915063ffffffff82111561249957612499612200565b506107d9565b5060208310610133831016604e8410600b84101617156124d6575081810a63ffffffff8111156124d1576124d1612200565b6107d9565b6124e563ffffffff84846123ef565b8063ffffffff048211156124fb576124fb612200565b029392505050565b60006120d963ffffffff841663ffffffff8416612432565b60208082526030908201527f4d65726b6c6520747265652069732066756c6c2e204e6f206d6f7265206c656160408201526f1d995cc818d85b88189948185919195960821b606082015260800190565b634e487b7160e01b600052601260045260246000fd5b600063ffffffff8316806125975761259761256b565b8063ffffffff84160691505092915050565b600063ffffffff8316806125bf576125bf61256b565b8063ffffffff8416049150509291505056fea2646970667358221220e0f1d4a7b82628a09b7120e1076d418c4ea09f2f092d1aa382bbeb0abab5240564736f6c634300081c0033",
  "linkReferences": {
    "poseidon-solidity/PoseidonT3.sol": {
      "PoseidonT3": [
        {
          "length": 20,
          "start": 4702
        },
        {
          "length": 20,
          "start": 5300
        },
        {
          "length": 20,
          "start": 5646
        }
      ]
    }
  },
  "deployedLinkReferences": {
    "poseidon-solidity/PoseidonT3.sol": {
      "PoseidonT3": [
        {
          "length": 20,
          "start": 1900
        },
        {
          "length": 20,
          "start": 2498
        },
        {
          "length": 20,
          "start": 2844
        }
      ]
    }
  }
}