{
  "_format": "hh-sol-artifact-1",
  "contractName": "UltraAnon",
  "sourceName": "contracts/UltraAnon.sol",
  "abi": [
    {
      "inputs": [
        {
          "internalType": "uint32",
          "name": "_levels",
          "type": "uint32"
        },
        {
          "internalType": "address",
          "name": "_privateTransferVerifier",
          "type": "address"
        },
        {
          "internalType": "address",
          "name": "_publicTransferVerifier",
          "type": "address"
        }
      ],
      "stateMutability": "nonpayable",
      "type": "constructor"
    },
    {
      "inputs": [
        {
          "internalType": "address",
          "name": "spender",
          "type": "address"
        },
        {
          "internalType": "uint256",
          "name": "allowance",
          "type": "uint256"
        },
        {
          "internalType": "uint256",
          "name": "needed",
          "type": "uint256"
        }
      ],
      "name": "ERC20InsufficientAllowance",
      "type": "error"
    },
    {
      "inputs": [
        {
          "internalType": "address",
          "name": "sender",
          "type": "address"
        },
        {
          "internalType": "uint256",
          "name": "balance",
          "type": "uint256"
        },
        {
          "internalType": "uint256",
          "name": "needed",
          "type": "uint256"
        }
      ],
      "name": "ERC20InsufficientBalance",
      "type": "error"
    },
    {
      "inputs": [
        {
          "internalType": "address",
          "name": "approver",
          "type": "address"
        }
      ],
      "name": "ERC20InvalidApprover",
      "type": "error"
    },
    {
      "inputs": [
        {
          "internalType": "address",
          "name": "receiver",
          "type": "address"
        }
      ],
      "name": "ERC20InvalidReceiver",
      "type": "error"
    },
    {
      "inputs": [
        {
          "internalType": "address",
          "name": "sender",
          "type": "address"
        }
      ],
      "name": "ERC20InvalidSender",
      "type": "error"
    },
    {
      "inputs": [
        {
          "internalType": "address",
          "name": "spender",
          "type": "address"
        }
      ],
      "name": "ERC20InvalidSpender",
      "type": "error"
    },
    {
      "anonymous": false,
      "inputs": [
        {
          "indexed": true,
          "internalType": "address",
          "name": "owner",
          "type": "address"
        },
        {
          "indexed": true,
          "internalType": "address",
          "name": "spender",
          "type": "address"
        },
        {
          "indexed": false,
          "internalType": "uint256",
          "name": "value",
          "type": "uint256"
        }
      ],
      "name": "Approval",
      "type": "event"
    },
    {
      "anonymous": false,
      "inputs": [
        {
          "indexed": true,
          "internalType": "uint256",
          "name": "leaf",
          "type": "uint256"
        },
        {
          "indexed": false,
          "internalType": "uint32",
          "name": "leafIndex",
          "type": "uint32"
        },
        {
          "indexed": false,
          "internalType": "uint256",
          "name": "timestamp",
          "type": "uint256"
        }
      ],
      "name": "IncomBalNewLeaf",
      "type": "event"
    },
    {
      "anonymous": false,
      "inputs": [
        {
          "indexed": true,
          "internalType": "uint256",
          "name": "leaf",
          "type": "uint256"
        },
        {
          "indexed": false,
          "internalType": "uint32",
          "name": "leafIndex",
          "type": "uint32"
        },
        {
          "indexed": false,
          "internalType": "uint256",
          "name": "timestamp",
          "type": "uint256"
        }
      ],
      "name": "IncomBalUpdatedLeaf",
      "type": "event"
    },
    {
      "anonymous": false,
      "inputs": [
        {
          "indexed": true,
          "internalType": "uint256",
          "name": "nullifierKey",
          "type": "uint256"
        },
        {
          "indexed": false,
          "internalType": "uint256",
          "name": "amountSent",
          "type": "uint256"
        }
      ],
      "name": "NullifierAdded",
      "type": "event"
    },
    {
      "anonymous": false,
      "inputs": [
        {
          "indexed": true,
          "internalType": "uint256",
          "name": "leaf",
          "type": "uint256"
        },
        {
          "indexed": false,
          "internalType": "uint32",
          "name": "leafIndex",
          "type": "uint32"
        },
        {
          "indexed": false,
          "internalType": "uint256",
          "name": "timestamp",
          "type": "uint256"
        }
      ],
      "name": "ShadowNewLeaf",
      "type": "event"
    },
    {
      "anonymous": false,
      "inputs": [
        {
          "indexed": true,
          "internalType": "address",
          "name": "from",
          "type": "address"
        },
        {
          "indexed": true,
          "internalType": "address",
          "name": "to",
          "type": "address"
        },
        {
          "indexed": false,
          "internalType": "uint256",
          "name": "value",
          "type": "uint256"
        }
      ],
      "name": "Transfer",
      "type": "event"
    },
    {
      "inputs": [],
      "name": "FIELD_SIZE",
      "outputs": [
        {
          "internalType": "uint256",
          "name": "",
          "type": "uint256"
        }
      ],
      "stateMutability": "view",
      "type": "function"
    },
    {
      "inputs": [],
      "name": "ROOT_HISTORY_SIZE",
      "outputs": [
        {
          "internalType": "uint32",
          "name": "",
          "type": "uint32"
        }
      ],
      "stateMutability": "view",
      "type": "function"
    },
    {
      "inputs": [],
      "name": "ZERO_VALUE",
      "outputs": [
        {
          "internalType": "uint256",
          "name": "",
          "type": "uint256"
        }
      ],
      "stateMutability": "view",
      "type": "function"
    },
    {
      "inputs": [
        {
          "internalType": "address",
          "name": "account",
          "type": "address"
        }
      ],
      "name": "balanceOf",
      "outputs": [
        {
          "internalType": "uint256",
          "name": "",
          "type": "uint256"
        }
      ],
      "stateMutability": "view",
      "type": "function"
    },
    {
      "inputs": [],
      "name": "decimals",
      "outputs": [
        {
          "internalType": "uint8",
          "name": "",
          "type": "uint8"
        }
      ],
      "stateMutability": "view",
      "type": "function"
    },
    {
      "inputs": [
        {
          "internalType": "address",
          "name": "_address",
          "type": "address"
        },
        {
          "internalType": "uint256",
          "name": "_balance",
          "type": "uint256"
        }
      ],
      "name": "hashIncomBalTreeLeaf",
      "outputs": [
        {
          "internalType": "uint256",
          "name": "",
          "type": "uint256"
        }
      ],
      "stateMutability": "pure",
      "type": "function"
    },
    {
      "inputs": [
        {
          "internalType": "uint256",
          "name": "_left",
          "type": "uint256"
        },
        {
          "internalType": "uint256",
          "name": "_right",
          "type": "uint256"
        }
      ],
      "name": "hashLeftRight",
      "outputs": [
        {
          "internalType": "uint256",
          "name": "",
          "type": "uint256"
        }
      ],
      "stateMutability": "pure",
      "type": "function"
    },
    {
      "inputs": [
        {
          "internalType": "uint256",
          "name": "nullifierKey",
          "type": "uint256"
        },
        {
          "internalType": "uint256",
          "name": "nullifierValue",
          "type": "uint256"
        }
      ],
      "name": "hashShadowBalanceLeaf",
      "outputs": [
        {
          "internalType": "uint256",
          "name": "",
          "type": "uint256"
        }
      ],
      "stateMutability": "pure",
      "type": "function"
    },
    {
      "inputs": [
        {
          "internalType": "uint256",
          "name": "",
          "type": "uint256"
        },
        {
          "internalType": "uint256",
          "name": "",
          "type": "uint256"
        }
      ],
      "name": "incomBalAllFilledSubtrees",
      "outputs": [
        {
          "internalType": "uint256",
          "name": "",
          "type": "uint256"
        }
      ],
      "stateMutability": "view",
      "type": "function"
    },
    {
      "inputs": [],
      "name": "incomBalCurrentRootIndex",
      "outputs": [
        {
          "internalType": "uint32",
          "name": "",
          "type": "uint32"
        }
      ],
      "stateMutability": "view",
      "type": "function"
    },
    {
      "inputs": [],
      "name": "incomBalGetLastRoot",
      "outputs": [
        {
          "internalType": "uint256",
          "name": "",
          "type": "uint256"
        }
      ],
      "stateMutability": "view",
      "type": "function"
    },
    {
      "inputs": [
        {
          "internalType": "uint256",
          "name": "_root",
          "type": "uint256"
        }
      ],
      "name": "incomBalIsKnownRoot",
      "outputs": [
        {
          "internalType": "bool",
          "name": "",
          "type": "bool"
        }
      ],
      "stateMutability": "view",
      "type": "function"
    },
    {
      "inputs": [],
      "name": "incomBalNextIndex",
      "outputs": [
        {
          "internalType": "uint32",
          "name": "",
          "type": "uint32"
        }
      ],
      "stateMutability": "view",
      "type": "function"
    },
    {
      "inputs": [
        {
          "internalType": "uint256",
          "name": "",
          "type": "uint256"
        }
      ],
      "name": "incomBalRoots",
      "outputs": [
        {
          "internalType": "uint256",
          "name": "",
          "type": "uint256"
        }
      ],
      "stateMutability": "view",
      "type": "function"
    },
    {
      "inputs": [],
      "name": "levels",
      "outputs": [
        {
          "internalType": "uint32",
          "name": "",
          "type": "uint32"
        }
      ],
      "stateMutability": "view",
      "type": "function"
    },
    {
      "inputs": [
        {
          "internalType": "address",
          "name": "",
          "type": "address"
        }
      ],
      "name": "merkleIndexOfAccount",
      "outputs": [
        {
          "internalType": "uint32",
          "name": "",
          "type": "uint32"
        }
      ],
      "stateMutability": "view",
      "type": "function"
    },
    {
      "inputs": [
        {
          "internalType": "address",
          "name": "account",
          "type": "address"
        },
        {
          "internalType": "uint256",
          "name": "value",
          "type": "uint256"
        }
      ],
      "name": "mint",
      "outputs": [],
      "stateMutability": "nonpayable",
      "type": "function"
    },
    {
      "inputs": [],
      "name": "name",
      "outputs": [
        {
          "internalType": "string",
          "name": "",
          "type": "string"
        }
      ],
      "stateMutability": "view",
      "type": "function"
    },
    {
      "inputs": [
        {
          "internalType": "uint256",
          "name": "",
          "type": "uint256"
        }
      ],
      "name": "nullifiers",
      "outputs": [
        {
          "internalType": "uint256",
          "name": "",
          "type": "uint256"
        }
      ],
      "stateMutability": "view",
      "type": "function"
    },
    {
      "inputs": [
        {
          "internalType": "address",
          "name": "to",
          "type": "address"
        },
        {
          "internalType": "uint256",
          "name": "value",
          "type": "uint256"
        },
        {
          "internalType": "uint256",
          "name": "nullifierValue",
          "type": "uint256"
        },
        {
          "internalType": "uint256",
          "name": "nullifierKey",
          "type": "uint256"
        },
        {
          "internalType": "uint256",
          "name": "shadowBalanceRoot",
          "type": "uint256"
        },
        {
          "internalType": "uint256",
          "name": "incomingBalanceRoot",
          "type": "uint256"
        },
        {
          "internalType": "bytes[]",
          "name": "proof",
          "type": "bytes[]"
        }
      ],
      "name": "privateTransfer",
      "outputs": [
        {
          "internalType": "bool",
          "name": "",
          "type": "bool"
        }
      ],
      "stateMutability": "nonpayable",
      "type": "function"
    },
    {
      "inputs": [],
      "name": "privateTransferVerifier",
      "outputs": [
        {
          "internalType": "address",
          "name": "",
          "type": "address"
        }
      ],
      "stateMutability": "view",
      "type": "function"
    },
    {
      "inputs": [
        {
          "internalType": "address",
          "name": "to",
          "type": "address"
        },
        {
          "internalType": "uint256",
          "name": "value",
          "type": "uint256"
        },
        {
          "internalType": "uint256",
          "name": "nullifierValue",
          "type": "uint256"
        },
        {
          "internalType": "uint256",
          "name": "nullifierKey",
          "type": "uint256"
        },
        {
          "internalType": "uint256",
          "name": "shadowBalanceRoot",
          "type": "uint256"
        },
        {
          "internalType": "uint256",
          "name": "incomingBalanceRoot",
          "type": "uint256"
        },
        {
          "internalType": "bytes[]",
          "name": "proof",
          "type": "bytes[]"
        }
      ],
      "name": "publicTransfer",
      "outputs": [
        {
          "internalType": "bool",
          "name": "",
          "type": "bool"
        }
      ],
      "stateMutability": "nonpayable",
      "type": "function"
    },
    {
      "inputs": [],
      "name": "publicTransferVerifier",
      "outputs": [
        {
          "internalType": "address",
          "name": "",
          "type": "address"
        }
      ],
      "stateMutability": "view",
      "type": "function"
    },
    {
      "inputs": [],
      "name": "shadowCurrentRootIndex",
      "outputs": [
        {
          "internalType": "uint32",
          "name": "",
          "type": "uint32"
        }
      ],
      "stateMutability": "view",
      "type": "function"
    },
    {
      "inputs": [
        {
          "internalType": "uint256",
          "name": "",
          "type": "uint256"
        }
      ],
      "name": "shadowFilledSubtrees",
      "outputs": [
        {
          "internalType": "uint256",
          "name": "",
          "type": "uint256"
        }
      ],
      "stateMutability": "view",
      "type": "function"
    },
    {
      "inputs": [],
      "name": "shadowGetLastRoot",
      "outputs": [
        {
          "internalType": "uint256",
          "name": "",
          "type": "uint256"
        }
      ],
      "stateMutability": "view",
      "type": "function"
    },
    {
      "inputs": [
        {
          "internalType": "uint256",
          "name": "_root",
          "type": "uint256"
        }
      ],
      "name": "shadowIsKnownRoot",
      "outputs": [
        {
          "internalType": "bool",
          "name": "",
          "type": "bool"
        }
      ],
      "stateMutability": "view",
      "type": "function"
    },
    {
      "inputs": [],
      "name": "shadowNextIndex",
      "outputs": [
        {
          "internalType": "uint32",
          "name": "",
          "type": "uint32"
        }
      ],
      "stateMutability": "view",
      "type": "function"
    },
    {
      "inputs": [
        {
          "internalType": "uint256",
          "name": "",
          "type": "uint256"
        }
      ],
      "name": "shadowRoots",
      "outputs": [
        {
          "internalType": "uint256",
          "name": "",
          "type": "uint256"
        }
      ],
      "stateMutability": "view",
      "type": "function"
    },
    {
      "inputs": [],
      "name": "symbol",
      "outputs": [
        {
          "internalType": "string",
          "name": "",
          "type": "string"
        }
      ],
      "stateMutability": "view",
      "type": "function"
    },
    {
      "inputs": [],
      "name": "totalSupply",
      "outputs": [
        {
          "internalType": "uint256",
          "name": "",
          "type": "uint256"
        }
      ],
      "stateMutability": "view",
      "type": "function"
    },
    {
      "inputs": [
        {
          "internalType": "uint256",
          "name": "i",
          "type": "uint256"
        }
      ],
      "name": "zeros",
      "outputs": [
        {
          "internalType": "uint256",
          "name": "",
          "type": "uint256"
        }
      ],
      "stateMutability": "pure",
      "type": "function"
    }
  ],
  "bytecode": "0x6080604052600880546001600160401b0319908116909155600b8054909116905534801561002c57600080fd5b50604051612a41380380612a4183398101604081905261004b91610938565b82604051806040016040528060098152602001682ab63a3930a0b737b760b91b815250604051806040016040528060048152602001632aa62a2960e11b815250816003908161009a9190610a25565b5060046100a78282610a25565b50505060008163ffffffff16116101115760405162461bcd60e51b815260206004820152602360248201527f5f6c6576656c732073686f756c642062652067726561746572207468616e207a60448201526265726f60e81b60648201526084015b60405180910390fd5b60208163ffffffff16106101675760405162461bcd60e51b815260206004820152601e60248201527f5f6c6576656c732073686f756c64206265206c657373207468616e20333200006044820152606401610108565b6005805463ffffffff191663ffffffff9290921691909117905560005b60055463ffffffff90811690821610156101d0576101a763ffffffff82166102c4565b63ffffffff82166000908152600960209081526040808320838052909152902055600101610184565b506005546101e39063ffffffff166102c4565b6000808052600a6020527f13da86008ba1c6922daee3e07db95305ef49ebced9f5467a0b8613fcc6b343e3919091555b60055463ffffffff90811690821610156102545761023663ffffffff82166102c4565b63ffffffff8216600090815260066020526040902055600101610213565b506005546102679063ffffffff166102c4565b6000805260076020527f6d5257204ebe7d88fd91ae87941cb2dd9d8062b64ae5a2bd2d28ec40b9fbf6df55600e80546001600160a01b039384166001600160a01b031991821617909155600f805492909316911617905550610ae3565b6000816000036102f557507f2fe54c60d3acabf3343a35b6eba15db4821b340f76e741e2249685ed4899af6c919050565b8160010361032457507f13e37f2d6cb86c78ccc1788607c2b199788c6bb0a615a21f2e7a8e88384222f8919050565b8160020361035357507f217126fa352c326896e8c2803eec8fd63ad50cf65edfef27a41a9e32dc622765919050565b8160030361038257507f0e28a61a9b3e91007d5a9e3ada18e1b24d6d230c618388ee5df34cacd7397eee919050565b816004036103b157507f27953447a6979839536badc5425ed15fadb0e292e9bc36f92f0aa5cfa5013587919050565b816005036103e057507f194191edbfb91d10f6a7afd315f33095410c7801c47175c2df6dc2cce0e3affc919050565b8160060361040f57507f1733dece17d71190516dbaf1927936fa643dc7079fc0cc731de9d6845a47741f919050565b8160070361043e57507f267855a7dc75db39d81d17f95d0a7aa572bf5ae19f4db0e84221d2b2ef999219919050565b8160080361046d57507f1184e11836b4c36ad8238a340ecc0985eeba665327e33e9b0e3641027c27620d919050565b8160090361049c57507f0702ab83a135d7f55350ab1bfaa90babd8fc1d2b3e6a7215381a7b2213d6c5ce919050565b81600a036104cb57507f2eecc0de814cfd8c57ce882babb2e30d1da56621aef7a47f3291cffeaec26ad7919050565b81600b036104fa57507f280bc02145c155d5833585b6c7b08501055157dd30ce005319621dc462d33b47919050565b81600c0361052957507f045132221d1fa0a7f4aed8acd2cbec1e2189b7732ccb2ec272b9c60f0d5afc5b919050565b81600d0361055857507f27f427ccbf58a44b1270abbe4eda6ba53bd6ac4d88cf1e00a13c4371ce71d366919050565b81600e0361058757507f1617eaae5064f26e8f8a6493ae92bfded7fde71b65df1ca6d5dcec0df70b2cef919050565b81600f036105b657507f20c6b400d0ea1b15435703c31c31ee63ad7ba5c8da66cec2796feacea575abca919050565b816010036105e557507f09589ddb438723f53a8e57bdada7c5f8ed67e8fece3889a73618732965645eec919050565b8160110361061357507e64b6a738a5ff537db7b220f3394f0ecbd35bfd355c5425dc1166bf3236079b919050565b8160120361064257507f095de56281b1d5055e897c3574ff790d5ee81dbc5df784ad2d67795e557c9e9f919050565b8160130361067157507f11cf2e2887aa21963a6ec14289183efe4d4c60f14ecd3d6fe0beebdf855a9b63919050565b816014036106a057507f2b0f6fc0179fa65b6f73627c0e1e84c7374d2eaec44c9a48f2571393ea77bcbb919050565b816015036106cf57507f16fdb637c2abf9c0f988dbf2fd64258c46fb6a273d537b2cf1603ea460b13279919050565b816016036106fe57507f21bbd7e944f6124dad4c376df9cc12e7ca66e47dff703ff7cedb1a454edcf0ff919050565b8160170361072d57507f2784f8220b1c963e468f590f137baaa1625b3b92a27ad9b6e84eb0d3454d9962919050565b8160180361075c57507f16ace1a65b7534142f8cc1aad810b3d6a7a74ca905d9c275cb98ba57e509fc10919050565b8160190361078b57507f2328068c6a8c24265124debd8fe10d3f29f0665ea725a65e3638f6192a96a013919050565b81601a036107ba57507f2ddb991be1f028022411b4c4d2c22043e5e751c120736f00adf54acab1c9ac14919050565b81601b036107e957507f0113798410eaeb95056a464f70521eb58377c0155f2fe518a5594d38cc209cc0919050565b81601c0361081857507f202d1ae61526f0d0d01ef80fb5d4055a7af45721024c2c24cffd6a3798f54d50919050565b81601d0361084757507f23ab323453748129f2765f79615022f5bebd6f4096a796300aab049a60b0f187919050565b81601e0361087657507f1f15585f8947e378bcf8bd918716799da909acdb944c57150b1eb4565fda8aa0919050565b81601f036108a557507f1eb064b21055ac6a350cf41eb30e4ce2cb19680217df3a243617c2838185ad06919050565b816020036108d457507f25a90efc49af54a5b7154a6eaba978dcf04796b4984fe54be8d4ea8579e1f1e6919050565b60405162461bcd60e51b815260206004820152601360248201527f496e646578206f7574206f6620626f756e6473000000000000000000000000006044820152606401610108565b919050565b80516001600160a01b038116811461091c57600080fd5b60008060006060848603121561094d57600080fd5b835163ffffffff8116811461096157600080fd5b925061096f60208501610921565b915061097d60408501610921565b90509250925092565b634e487b7160e01b600052604160045260246000fd5b600181811c908216806109b057607f821691505b6020821081036109d057634e487b7160e01b600052602260045260246000fd5b50919050565b601f821115610a2057806000526020600020601f840160051c810160208510156109fd5750805b601f840160051c820191505b81811015610a1d5760008155600101610a09565b50505b505050565b81516001600160401b03811115610a3e57610a3e610986565b610a5281610a4c845461099c565b846109d6565b6020601f821160018114610a865760008315610a6e5750848201515b600019600385901b1c1916600184901b178455610a1d565b600084815260208120601f198516915b82811015610ab65787850151825560209485019460019092019101610a96565b5084821015610ad45786840151600019600387901b60f8161c191681555b50505050600190811b01905550565b611f4f80610af26000396000f3fe608060405234801561001057600080fd5b50600436106101f05760003560e01c80637264388a1161010f578063ba89fc72116100a2578063d21e82ab11610071578063d21e82ab146104a7578063e8295588146104c7578063ec732959146104da578063fa0898c51461050157600080fd5b8063ba89fc721461046f578063c290ad8a1461046f578063cb63db6c14610482578063cd87a3b41461049f57600080fd5b80639752e918116100de5780639752e91814610415578063997c64561461042c578063a1a892331461043f578063b68ca1601461045c57600080fd5b80637264388a146103bd578063954c8059146103e357806395d89b41146103f6578063970c2a75146103fe57600080fd5b80634c58724d11610187578063688681881161015657806368868188146103315780636fddf9681461035157806370a082311461037157806372162b121461039a57600080fd5b80634c58724d146102d35780634ecf518b146102fe5780635bb939951461030e57806366cb3dbd1461032157600080fd5b806340c10f19116101c357806340c10f1914610259578063414a37ba1461026e5780634438219b146102955780634be3870f146102a857600080fd5b806306fdde03146101f557806318160ddd14610213578063313ce567146102255780633a8f94dd14610234575b600080fd5b6101fd610521565b60405161020a9190611a8f565b60405180910390f35b6002545b60405190815260200161020a565b6040516012815260200161020a565b600b546102449063ffffffff1681565b60405163ffffffff909116815260200161020a565b61026c610267366004611af4565b6105b3565b005b6102177f30644e72e131a029b85045b68181585d2833e84879b9709143e1f593f000000181565b6102176102a3366004611af4565b6105c1565b6102176102b6366004611b1e565b600960209081526000928352604080842090915290825290205481565b600f546102e6906001600160a01b031681565b6040516001600160a01b03909116815260200161020a565b6005546102449063ffffffff1681565b61021761031c366004611b1e565b610662565b6008546102449063ffffffff1681565b61021761033f366004611b40565b600a6020526000908152604090205481565b61021761035f366004611b40565b60076020526000908152604090205481565b61021761037f366004611b59565b6001600160a01b031660009081526020819052604090205490565b6103ad6103a8366004611b40565b61079a565b604051901515815260200161020a565b6102446103cb366004611b59565b600c6020526000908152604090205463ffffffff1681565b600e546102e6906001600160a01b031681565b6101fd610819565b600b5461024490600160201b900463ffffffff1681565b60085461024490600160201b900463ffffffff1681565b6103ad61043a366004611b40565b610828565b60085463ffffffff16600090815260076020526040902054610217565b61021761046a366004611b1e565b6108a7565b6103ad61047d366004611b7b565b6108f4565b600b5463ffffffff166000908152600a6020526040902054610217565b610244601e81565b6102176104b5366004611b40565b600d6020526000908152604090205481565b6102176104d5366004611b40565b610a78565b6102177f2fe54c60d3acabf3343a35b6eba15db4821b340f76e741e2249685ed4899af6c81565b61021761050f366004611b40565b60066020526000908152604090205481565b60606003805461053090611c32565b80601f016020809104026020016040519081016040528092919081815260200182805461055c90611c32565b80156105a95780601f1061057e576101008083540402835291602001916105a9565b820191906000526020600020905b81548152906001019060200180831161058c57829003601f168201915b5050505050905090565b6105bd82826110cb565b5050565b6040805180820182526001600160a01b0384168152602081018390529051632b0aac7f60e11b81526000919073__$75f79a42d9bcbdbb69ad79ebd80f556f39$__9063561558fe90610617908490600401611c6c565b602060405180830381865af4158015610634573d6000803e3d6000fd5b505050506040513d601f19601f820116820180604052508101906106589190611c9d565b9150505b92915050565b60007f30644e72e131a029b85045b68181585d2833e84879b9709143e1f593f000000183106106d85760405162461bcd60e51b815260206004820181905260248201527f5f6c6566742073686f756c6420626520696e7369646520746865206669656c6460448201526064015b60405180910390fd5b7f30644e72e131a029b85045b68181585d2833e84879b9709143e1f593f000000182106107515760405162461bcd60e51b815260206004820152602160248201527f5f72696768742073686f756c6420626520696e7369646520746865206669656c6044820152601960fa1b60648201526084016106cf565b604080518082018252848152602081018490529051632b0aac7f60e11b815273__$75f79a42d9bcbdbb69ad79ebd80f556f39$__9063561558fe90610617908490600401611c6c565b6000816000036107ac57506000919050565b600b5463ffffffff16805b63ffffffff81166000908152600a602052604090205484036107dd575060019392505050565b8063ffffffff166000036107ef5750601e5b806107f981611ccc565b9150508163ffffffff168163ffffffff16036107b7575060009392505050565b60606004805461053090611c32565b60008160000361083a57506000919050565b60085463ffffffff16805b63ffffffff8116600090815260076020526040902054840361086b575060019392505050565b8063ffffffff1660000361087d5750601e5b8061088781611ccc565b9150508163ffffffff168163ffffffff1603610845575060009392505050565b604080518082018252838152602081018390529051632b0aac7f60e11b81526000919073__$75f79a42d9bcbdbb69ad79ebd80f556f39$__9063561558fe90610617908490600401611c6c565b60006108ff85610828565b6109865760405162461bcd60e51b815260206004820152604c60248201527f736861646f7742616c616e636520726f6f74206973206e6f74206b6e6f776e2060448201527f62792074686520636f6e74726163742e2049747320656974686572207374616c60648201526b19481bdc881a5b9d985b1a5960a21b608482015260a4016106cf565b61098f8461079a565b610a185760405162461bcd60e51b815260206004820152604e60248201527f696e636f6d696e6742616c616e636520726f6f74206973206e6f74206b6e6f7760448201527f6e2062792074686520636f6e74726163742e204974732065697468657220737460648201526d185b19481bdc881a5b9d985b1a5960921b608482015260a4016106cf565b610a228688611101565b857f4e1b4529b925ec4a9216cd7d8b99e562e336ec79017aab97c82f3ed2aaa4a66f89604051610a5491815260200190565b60405180910390a233610a68818b8b611189565b5060019998505050505050505050565b600081600003610aa957507f2fe54c60d3acabf3343a35b6eba15db4821b340f76e741e2249685ed4899af6c919050565b81600103610ad857507f13e37f2d6cb86c78ccc1788607c2b199788c6bb0a615a21f2e7a8e88384222f8919050565b81600203610b0757507f217126fa352c326896e8c2803eec8fd63ad50cf65edfef27a41a9e32dc622765919050565b81600303610b3657507f0e28a61a9b3e91007d5a9e3ada18e1b24d6d230c618388ee5df34cacd7397eee919050565b81600403610b6557507f27953447a6979839536badc5425ed15fadb0e292e9bc36f92f0aa5cfa5013587919050565b81600503610b9457507f194191edbfb91d10f6a7afd315f33095410c7801c47175c2df6dc2cce0e3affc919050565b81600603610bc357507f1733dece17d71190516dbaf1927936fa643dc7079fc0cc731de9d6845a47741f919050565b81600703610bf257507f267855a7dc75db39d81d17f95d0a7aa572bf5ae19f4db0e84221d2b2ef999219919050565b81600803610c2157507f1184e11836b4c36ad8238a340ecc0985eeba665327e33e9b0e3641027c27620d919050565b81600903610c5057507f0702ab83a135d7f55350ab1bfaa90babd8fc1d2b3e6a7215381a7b2213d6c5ce919050565b81600a03610c7f57507f2eecc0de814cfd8c57ce882babb2e30d1da56621aef7a47f3291cffeaec26ad7919050565b81600b03610cae57507f280bc02145c155d5833585b6c7b08501055157dd30ce005319621dc462d33b47919050565b81600c03610cdd57507f045132221d1fa0a7f4aed8acd2cbec1e2189b7732ccb2ec272b9c60f0d5afc5b919050565b81600d03610d0c57507f27f427ccbf58a44b1270abbe4eda6ba53bd6ac4d88cf1e00a13c4371ce71d366919050565b81600e03610d3b57507f1617eaae5064f26e8f8a6493ae92bfded7fde71b65df1ca6d5dcec0df70b2cef919050565b81600f03610d6a57507f20c6b400d0ea1b15435703c31c31ee63ad7ba5c8da66cec2796feacea575abca919050565b81601003610d9957507f09589ddb438723f53a8e57bdada7c5f8ed67e8fece3889a73618732965645eec919050565b81601103610dc757507e64b6a738a5ff537db7b220f3394f0ecbd35bfd355c5425dc1166bf3236079b919050565b81601203610df657507f095de56281b1d5055e897c3574ff790d5ee81dbc5df784ad2d67795e557c9e9f919050565b81601303610e2557507f11cf2e2887aa21963a6ec14289183efe4d4c60f14ecd3d6fe0beebdf855a9b63919050565b81601403610e5457507f2b0f6fc0179fa65b6f73627c0e1e84c7374d2eaec44c9a48f2571393ea77bcbb919050565b81601503610e8357507f16fdb637c2abf9c0f988dbf2fd64258c46fb6a273d537b2cf1603ea460b13279919050565b81601603610eb257507f21bbd7e944f6124dad4c376df9cc12e7ca66e47dff703ff7cedb1a454edcf0ff919050565b81601703610ee157507f2784f8220b1c963e468f590f137baaa1625b3b92a27ad9b6e84eb0d3454d9962919050565b81601803610f1057507f16ace1a65b7534142f8cc1aad810b3d6a7a74ca905d9c275cb98ba57e509fc10919050565b81601903610f3f57507f2328068c6a8c24265124debd8fe10d3f29f0665ea725a65e3638f6192a96a013919050565b81601a03610f6e57507f2ddb991be1f028022411b4c4d2c22043e5e751c120736f00adf54acab1c9ac14919050565b81601b03610f9d57507f0113798410eaeb95056a464f70521eb58377c0155f2fe518a5594d38cc209cc0919050565b81601c03610fcc57507f202d1ae61526f0d0d01ef80fb5d4055a7af45721024c2c24cffd6a3798f54d50919050565b81601d03610ffb57507f23ab323453748129f2765f79615022f5bebd6f4096a796300aab049a60b0f187919050565b81601e0361102a57507f1f15585f8947e378bcf8bd918716799da909acdb944c57150b1eb4565fda8aa0919050565b81601f0361105957507f1eb064b21055ac6a350cf41eb30e4ce2cb19680217df3a243617c2838185ad06919050565b8160200361108857507f25a90efc49af54a5b7154a6eaba978dcf04796b4984fe54be8d4ea8579e1f1e6919050565b60405162461bcd60e51b8152602060048201526013602482015272496e646578206f7574206f6620626f756e647360681b60448201526064016106cf565b919050565b6001600160a01b0382166110f55760405163ec442f0560e01b8152600060048201526024016106cf565b6105bd600083836111ed565b6000828152600d60205260409020541561115d5760405162461bcd60e51b815260206004820152601f60248201527f6e756c6c69666965724b65792063616e7420626520757365642074776963650060448201526064016106cf565b6000828152600d6020526040812082905561117883836108a7565b905061118381611324565b50505050565b6001600160a01b0383166111b357604051634b637e8f60e11b8152600060048201526024016106cf565b6001600160a01b0382166111dd5760405163ec442f0560e01b8152600060048201526024016106cf565b6111e88383836111ed565b505050565b6001600160a01b03831661121857806002600082825461120d9190611cec565b9091555061128a9050565b6001600160a01b0383166000908152602081905260409020548181101561126b5760405163391434e360e21b81526001600160a01b038516600482015260248101829052604481018390526064016106cf565b6001600160a01b03841660009081526020819052604090209082900390555b6001600160a01b0382166112a6576002805482900390556112d2565b6001600160a01b038216600090815260208190526040902080548201908190556112d083826114d8565b505b816001600160a01b0316836001600160a01b03167fddf252ad1be2c89b69c2b068fc378daa952ba7f163c4a11628f55a4df523b3ef8360405161131791815260200190565b60405180910390a3505050565b60085460055460009163ffffffff600160201b90910481169161134991166002611e13565b63ffffffff168163ffffffff16036113735760405162461bcd60e51b81526004016106cf90611e2b565b8083600080805b60055463ffffffff908116908216101561141457611399600286611e91565b63ffffffff166000036113d7578392506113b88163ffffffff16610a78565b63ffffffff8216600090815260066020526040902085905591506113f3565b63ffffffff811660009081526006602052604090205492508391505b6113fd8383610662565b935061140a600286611eb9565b945060010161137a565b50600854600090601e9061142f9063ffffffff166001611ee1565b6114399190611e91565b6008805463ffffffff191663ffffffff83169081179091556000908152600760205260409020859055905061146f866001611ee1565b6008805467ffffffff000000001916600160201b63ffffffff9384160217905560408051918816825242602083015289917fbbbd917bb32216a8f5910e98c84aff812c3a68defc2e2e31a048b49630a1df6191015b60405180910390a250939695505050505050565b6001600160a01b0382166000908152600c602052604081205463ffffffff169061150284846105c1565b90508163ffffffff1660000361156057600061151d82611574565b905061152a816001611ee1565b6001600160a01b0386166000908152600c60205260409020805463ffffffff191663ffffffff9290921691909117905550611183565b6111838161156f600185611efd565b6117ae565b600b5460055460009163ffffffff600160201b90910481169161159991166002611e13565b63ffffffff168163ffffffff16036115c35760405162461bcd60e51b81526004016106cf90611e2b565b8083600080805b60055463ffffffff90811690821610156116fa5763ffffffff808216600090815260096020908152604080832093891683529290522084905561160e600286611e91565b63ffffffff166000036116345783925061162d8163ffffffff16610a78565b91506116d9565b63ffffffff8116600090815260096020526040812090611655600188611efd565b63ffffffff168152602001908152602001600020549250839150826000036116d95760405162461bcd60e51b815260206004820152603160248201527f63616e7420757365206120302076616c75652066726f6d20696e636f6d42616c604482015270416c6c46696c6c6564537562747265657360781b60648201526084016106cf565b6116e38383610662565b93506116f0600286611eb9565b94506001016115ca565b50600b54600090601e906117159063ffffffff166001611ee1565b61171f9190611e91565b600b805463ffffffff191663ffffffff83169081179091556000908152600a602052604090208590559050611755866001611ee1565b600b805467ffffffff000000001916600160201b63ffffffff9384160217905560408051918816825242602083015289917f637a5aaba41d5c887c8292afda36e44fb2ddab99ecdf6618688ffd611489453991016114c4565b600b5463ffffffff600160201b9091048116908216106118105760405162461bcd60e51b815260206004820152601f60248201527f63616e206f6e6c7920757064617465206578697374696e672076616c7565730060448201526064016106cf565b8082600080805b60055463ffffffff90811690821610156119f75763ffffffff808216600090815260096020908152604080832093891683529290522084905561185b600286611e91565b63ffffffff1660000361192f5763ffffffff811660009081526009602052604081208594509061188c876001611ee1565b63ffffffff168152602001908152602001600020549150816000036118bd576118ba8163ffffffff16610a78565b91505b8160000361192a5760405162461bcd60e51b815260206004820152603460248201527f72696768742063616e7420626520302076616c75652066726f6d20696e636f6d60448201527342616c416c6c46696c6c6564537562747265657360601b60648201526084016106cf565b6119d6565b63ffffffff8116600090815260096020526040812090611950600188611efd565b63ffffffff168152602001908152602001600020549250839150826000036119d65760405162461bcd60e51b815260206004820152603360248201527f6c6566742063616e7420626520302076616c75652066726f6d20696e636f6d42604482015272616c416c6c46696c6c6564537562747265657360681b60648201526084016106cf565b6119e08383610662565b93506119ed600286611eb9565b9450600101611817565b50600b54600090601e90611a129063ffffffff166001611ee1565b611a1c9190611e91565b600b805463ffffffff191663ffffffff8381169182179092556000908152600a60209081526040918290208890558151928a168352429083015291925088917fe91751ae15e5bd4bb233331b7681684c1e0e29af86cd07cc247f960173365137910160405180910390a250505050505050565b602081526000825180602084015260005b81811015611abd5760208186018101516040868401015201611aa0565b506000604082850101526040601f19601f83011684010191505092915050565b80356001600160a01b03811681146110c657600080fd5b60008060408385031215611b0757600080fd5b611b1083611add565b946020939093013593505050565b60008060408385031215611b3157600080fd5b50508035926020909101359150565b600060208284031215611b5257600080fd5b5035919050565b600060208284031215611b6b57600080fd5b611b7482611add565b9392505050565b60008060008060008060008060e0898b031215611b9757600080fd5b611ba089611add565b97506020890135965060408901359550606089013594506080890135935060a0890135925060c089013567ffffffffffffffff811115611bdf57600080fd5b8901601f81018b13611bf057600080fd5b803567ffffffffffffffff811115611c0757600080fd5b8b60208260051b8401011115611c1c57600080fd5b989b979a50959850939692959194602001935050565b600181811c90821680611c4657607f821691505b602082108103611c6657634e487b7160e01b600052602260045260246000fd5b50919050565b60408101818360005b6002811015611c94578151835260209283019290910190600101611c75565b50505092915050565b600060208284031215611caf57600080fd5b5051919050565b634e487b7160e01b600052601160045260246000fd5b600063ffffffff821680611ce257611ce2611cb6565b6000190192915050565b8082018082111561065c5761065c611cb6565b6001815b6001841115611d3a57808504811115611d1e57611d1e611cb6565b6001841615611d2c57908102905b60019390931c928002611d03565b935093915050565b600082611d515750600161065c565b81611d5e5750600061065c565b8160018114611d745760028114611d7e57611daf565b600191505061065c565b60ff841115611d8f57611d8f611cb6565b6001841b915063ffffffff821115611da957611da9611cb6565b5061065c565b5060208310610133831016604e8410600b8410161715611de6575081810a63ffffffff811115611de157611de1611cb6565b61065c565b611df563ffffffff8484611cff565b8063ffffffff04821115611e0b57611e0b611cb6565b029392505050565b6000611b7463ffffffff841663ffffffff8416611d42565b60208082526030908201527f4d65726b6c6520747265652069732066756c6c2e204e6f206d6f7265206c656160408201526f1d995cc818d85b88189948185919195960821b606082015260800190565b634e487b7160e01b600052601260045260246000fd5b600063ffffffff831680611ea757611ea7611e7b565b8063ffffffff84160691505092915050565b600063ffffffff831680611ecf57611ecf611e7b565b8063ffffffff84160491505092915050565b63ffffffff818116838216019081111561065c5761065c611cb6565b63ffffffff828116828216039081111561065c5761065c611cb656fea264697066735822122089ea27c74b5256f7751f23e2632b0b1be0f90c6973ee07954afcac2450dd7a3064736f6c634300081c0033",
  "linkReferences": {
    "poseidon-solidity/PoseidonT3.sol": {
      "PoseidonT3": [
        {
          "length": 20,
          "start": 4321
        },
        {
          "length": 20,
          "start": 4708
        },
        {
          "length": 20,
          "start": 5054
        }
      ]
    }
  },
  "deployedLinkReferences": {
    "poseidon-solidity/PoseidonT3.sol": {
      "PoseidonT3": [
        {
          "length": 20,
          "start": 1519
        },
        {
          "length": 20,
          "start": 1906
        },
        {
          "length": 20,
          "start": 2252
        }
      ]
    }
  }
}