{
  "_format": "hh-sol-artifact-1",
  "contractName": "UltraAnon",
  "sourceName": "contracts/UltraAnon.sol",
  "abi": [
    {
      "inputs": [
        {
          "internalType": "uint32",
          "name": "_levels",
          "type": "uint32"
        }
      ],
      "stateMutability": "nonpayable",
      "type": "constructor"
    },
    {
      "inputs": [
        {
          "internalType": "address",
          "name": "spender",
          "type": "address"
        },
        {
          "internalType": "uint256",
          "name": "allowance",
          "type": "uint256"
        },
        {
          "internalType": "uint256",
          "name": "needed",
          "type": "uint256"
        }
      ],
      "name": "ERC20InsufficientAllowance",
      "type": "error"
    },
    {
      "inputs": [
        {
          "internalType": "address",
          "name": "sender",
          "type": "address"
        },
        {
          "internalType": "uint256",
          "name": "balance",
          "type": "uint256"
        },
        {
          "internalType": "uint256",
          "name": "needed",
          "type": "uint256"
        }
      ],
      "name": "ERC20InsufficientBalance",
      "type": "error"
    },
    {
      "inputs": [
        {
          "internalType": "address",
          "name": "approver",
          "type": "address"
        }
      ],
      "name": "ERC20InvalidApprover",
      "type": "error"
    },
    {
      "inputs": [
        {
          "internalType": "address",
          "name": "receiver",
          "type": "address"
        }
      ],
      "name": "ERC20InvalidReceiver",
      "type": "error"
    },
    {
      "inputs": [
        {
          "internalType": "address",
          "name": "sender",
          "type": "address"
        }
      ],
      "name": "ERC20InvalidSender",
      "type": "error"
    },
    {
      "inputs": [
        {
          "internalType": "address",
          "name": "spender",
          "type": "address"
        }
      ],
      "name": "ERC20InvalidSpender",
      "type": "error"
    },
    {
      "anonymous": false,
      "inputs": [
        {
          "indexed": true,
          "internalType": "address",
          "name": "owner",
          "type": "address"
        },
        {
          "indexed": true,
          "internalType": "address",
          "name": "spender",
          "type": "address"
        },
        {
          "indexed": false,
          "internalType": "uint256",
          "name": "value",
          "type": "uint256"
        }
      ],
      "name": "Approval",
      "type": "event"
    },
    {
      "anonymous": false,
      "inputs": [
        {
          "indexed": true,
          "internalType": "uint256",
          "name": "leaf",
          "type": "uint256"
        },
        {
          "indexed": false,
          "internalType": "uint32",
          "name": "leafIndex",
          "type": "uint32"
        },
        {
          "indexed": false,
          "internalType": "uint256",
          "name": "timestamp",
          "type": "uint256"
        }
      ],
      "name": "IncomBalNewLeaf",
      "type": "event"
    },
    {
      "anonymous": false,
      "inputs": [
        {
          "indexed": true,
          "internalType": "uint256",
          "name": "leaf",
          "type": "uint256"
        },
        {
          "indexed": false,
          "internalType": "uint32",
          "name": "leafIndex",
          "type": "uint32"
        },
        {
          "indexed": false,
          "internalType": "uint256",
          "name": "timestamp",
          "type": "uint256"
        }
      ],
      "name": "IncomBalUpdatedLeaf",
      "type": "event"
    },
    {
      "anonymous": false,
      "inputs": [
        {
          "indexed": true,
          "internalType": "uint256",
          "name": "leaf",
          "type": "uint256"
        },
        {
          "indexed": false,
          "internalType": "uint32",
          "name": "leafIndex",
          "type": "uint32"
        },
        {
          "indexed": false,
          "internalType": "uint256",
          "name": "timestamp",
          "type": "uint256"
        }
      ],
      "name": "ShadowNewLeaf",
      "type": "event"
    },
    {
      "anonymous": false,
      "inputs": [
        {
          "indexed": true,
          "internalType": "address",
          "name": "from",
          "type": "address"
        },
        {
          "indexed": true,
          "internalType": "address",
          "name": "to",
          "type": "address"
        },
        {
          "indexed": false,
          "internalType": "uint256",
          "name": "value",
          "type": "uint256"
        }
      ],
      "name": "Transfer",
      "type": "event"
    },
    {
      "inputs": [],
      "name": "FIELD_SIZE",
      "outputs": [
        {
          "internalType": "uint256",
          "name": "",
          "type": "uint256"
        }
      ],
      "stateMutability": "view",
      "type": "function"
    },
    {
      "inputs": [],
      "name": "ROOT_HISTORY_SIZE",
      "outputs": [
        {
          "internalType": "uint32",
          "name": "",
          "type": "uint32"
        }
      ],
      "stateMutability": "view",
      "type": "function"
    },
    {
      "inputs": [],
      "name": "ZERO_VALUE",
      "outputs": [
        {
          "internalType": "uint256",
          "name": "",
          "type": "uint256"
        }
      ],
      "stateMutability": "view",
      "type": "function"
    },
    {
      "inputs": [
        {
          "internalType": "address",
          "name": "owner",
          "type": "address"
        },
        {
          "internalType": "address",
          "name": "spender",
          "type": "address"
        }
      ],
      "name": "allowance",
      "outputs": [
        {
          "internalType": "uint256",
          "name": "",
          "type": "uint256"
        }
      ],
      "stateMutability": "view",
      "type": "function"
    },
    {
      "inputs": [
        {
          "internalType": "address",
          "name": "spender",
          "type": "address"
        },
        {
          "internalType": "uint256",
          "name": "value",
          "type": "uint256"
        }
      ],
      "name": "approve",
      "outputs": [
        {
          "internalType": "bool",
          "name": "",
          "type": "bool"
        }
      ],
      "stateMutability": "nonpayable",
      "type": "function"
    },
    {
      "inputs": [
        {
          "internalType": "address",
          "name": "account",
          "type": "address"
        }
      ],
      "name": "balanceOf",
      "outputs": [
        {
          "internalType": "uint256",
          "name": "",
          "type": "uint256"
        }
      ],
      "stateMutability": "view",
      "type": "function"
    },
    {
      "inputs": [],
      "name": "decimals",
      "outputs": [
        {
          "internalType": "uint8",
          "name": "",
          "type": "uint8"
        }
      ],
      "stateMutability": "view",
      "type": "function"
    },
    {
      "inputs": [
        {
          "internalType": "address",
          "name": "_address",
          "type": "address"
        },
        {
          "internalType": "uint256",
          "name": "_balance",
          "type": "uint256"
        }
      ],
      "name": "hashIncomBalTreeLeaf",
      "outputs": [
        {
          "internalType": "uint256",
          "name": "",
          "type": "uint256"
        }
      ],
      "stateMutability": "pure",
      "type": "function"
    },
    {
      "inputs": [
        {
          "internalType": "uint256",
          "name": "_left",
          "type": "uint256"
        },
        {
          "internalType": "uint256",
          "name": "_right",
          "type": "uint256"
        }
      ],
      "name": "hashLeftRight",
      "outputs": [
        {
          "internalType": "uint256",
          "name": "",
          "type": "uint256"
        }
      ],
      "stateMutability": "pure",
      "type": "function"
    },
    {
      "inputs": [
        {
          "internalType": "uint256",
          "name": "nullifierKey",
          "type": "uint256"
        },
        {
          "internalType": "uint256",
          "name": "nullifierValue",
          "type": "uint256"
        }
      ],
      "name": "hashShadowBalanceLeaf",
      "outputs": [
        {
          "internalType": "uint256",
          "name": "",
          "type": "uint256"
        }
      ],
      "stateMutability": "pure",
      "type": "function"
    },
    {
      "inputs": [
        {
          "internalType": "uint256",
          "name": "",
          "type": "uint256"
        },
        {
          "internalType": "uint256",
          "name": "",
          "type": "uint256"
        }
      ],
      "name": "incomBalAllFilledSubtrees",
      "outputs": [
        {
          "internalType": "uint256",
          "name": "",
          "type": "uint256"
        }
      ],
      "stateMutability": "view",
      "type": "function"
    },
    {
      "inputs": [],
      "name": "incomBalCurrentRootIndex",
      "outputs": [
        {
          "internalType": "uint32",
          "name": "",
          "type": "uint32"
        }
      ],
      "stateMutability": "view",
      "type": "function"
    },
    {
      "inputs": [],
      "name": "incomBalGetLastRoot",
      "outputs": [
        {
          "internalType": "uint256",
          "name": "",
          "type": "uint256"
        }
      ],
      "stateMutability": "view",
      "type": "function"
    },
    {
      "inputs": [
        {
          "internalType": "uint256",
          "name": "_root",
          "type": "uint256"
        }
      ],
      "name": "incomBalIsKnownRoot",
      "outputs": [
        {
          "internalType": "bool",
          "name": "",
          "type": "bool"
        }
      ],
      "stateMutability": "view",
      "type": "function"
    },
    {
      "inputs": [],
      "name": "incomBalNextIndex",
      "outputs": [
        {
          "internalType": "uint32",
          "name": "",
          "type": "uint32"
        }
      ],
      "stateMutability": "view",
      "type": "function"
    },
    {
      "inputs": [
        {
          "internalType": "uint256",
          "name": "",
          "type": "uint256"
        }
      ],
      "name": "incomBalRoots",
      "outputs": [
        {
          "internalType": "uint256",
          "name": "",
          "type": "uint256"
        }
      ],
      "stateMutability": "view",
      "type": "function"
    },
    {
      "inputs": [],
      "name": "levels",
      "outputs": [
        {
          "internalType": "uint32",
          "name": "",
          "type": "uint32"
        }
      ],
      "stateMutability": "view",
      "type": "function"
    },
    {
      "inputs": [
        {
          "internalType": "address",
          "name": "",
          "type": "address"
        }
      ],
      "name": "merkleIndexOfAccount",
      "outputs": [
        {
          "internalType": "uint32",
          "name": "",
          "type": "uint32"
        }
      ],
      "stateMutability": "view",
      "type": "function"
    },
    {
      "inputs": [
        {
          "internalType": "address",
          "name": "account",
          "type": "address"
        },
        {
          "internalType": "uint256",
          "name": "value",
          "type": "uint256"
        }
      ],
      "name": "mint",
      "outputs": [],
      "stateMutability": "nonpayable",
      "type": "function"
    },
    {
      "inputs": [],
      "name": "name",
      "outputs": [
        {
          "internalType": "string",
          "name": "",
          "type": "string"
        }
      ],
      "stateMutability": "view",
      "type": "function"
    },
    {
      "inputs": [],
      "name": "privateTransfer",
      "outputs": [],
      "stateMutability": "nonpayable",
      "type": "function"
    },
    {
      "inputs": [],
      "name": "shadowCurrentRootIndex",
      "outputs": [
        {
          "internalType": "uint32",
          "name": "",
          "type": "uint32"
        }
      ],
      "stateMutability": "view",
      "type": "function"
    },
    {
      "inputs": [
        {
          "internalType": "uint256",
          "name": "",
          "type": "uint256"
        }
      ],
      "name": "shadowFilledSubtrees",
      "outputs": [
        {
          "internalType": "uint256",
          "name": "",
          "type": "uint256"
        }
      ],
      "stateMutability": "view",
      "type": "function"
    },
    {
      "inputs": [],
      "name": "shadowGetLastRoot",
      "outputs": [
        {
          "internalType": "uint256",
          "name": "",
          "type": "uint256"
        }
      ],
      "stateMutability": "view",
      "type": "function"
    },
    {
      "inputs": [
        {
          "internalType": "uint256",
          "name": "_root",
          "type": "uint256"
        }
      ],
      "name": "shadowIsKnownRoot",
      "outputs": [
        {
          "internalType": "bool",
          "name": "",
          "type": "bool"
        }
      ],
      "stateMutability": "view",
      "type": "function"
    },
    {
      "inputs": [],
      "name": "shadowNextIndex",
      "outputs": [
        {
          "internalType": "uint32",
          "name": "",
          "type": "uint32"
        }
      ],
      "stateMutability": "view",
      "type": "function"
    },
    {
      "inputs": [
        {
          "internalType": "uint256",
          "name": "",
          "type": "uint256"
        }
      ],
      "name": "shadowRoots",
      "outputs": [
        {
          "internalType": "uint256",
          "name": "",
          "type": "uint256"
        }
      ],
      "stateMutability": "view",
      "type": "function"
    },
    {
      "inputs": [],
      "name": "symbol",
      "outputs": [
        {
          "internalType": "string",
          "name": "",
          "type": "string"
        }
      ],
      "stateMutability": "view",
      "type": "function"
    },
    {
      "inputs": [],
      "name": "totalSupply",
      "outputs": [
        {
          "internalType": "uint256",
          "name": "",
          "type": "uint256"
        }
      ],
      "stateMutability": "view",
      "type": "function"
    },
    {
      "inputs": [
        {
          "internalType": "address",
          "name": "to",
          "type": "address"
        },
        {
          "internalType": "uint256",
          "name": "value",
          "type": "uint256"
        }
      ],
      "name": "transfer",
      "outputs": [
        {
          "internalType": "bool",
          "name": "",
          "type": "bool"
        }
      ],
      "stateMutability": "nonpayable",
      "type": "function"
    },
    {
      "inputs": [
        {
          "internalType": "address",
          "name": "from",
          "type": "address"
        },
        {
          "internalType": "address",
          "name": "to",
          "type": "address"
        },
        {
          "internalType": "uint256",
          "name": "value",
          "type": "uint256"
        }
      ],
      "name": "transferFrom",
      "outputs": [
        {
          "internalType": "bool",
          "name": "",
          "type": "bool"
        }
      ],
      "stateMutability": "nonpayable",
      "type": "function"
    },
    {
      "inputs": [
        {
          "internalType": "uint256",
          "name": "i",
          "type": "uint256"
        }
      ],
      "name": "zeros",
      "outputs": [
        {
          "internalType": "uint256",
          "name": "",
          "type": "uint256"
        }
      ],
      "stateMutability": "pure",
      "type": "function"
    }
  ],
  "bytecode": "0x6080604052600880546001600160401b0319908116909155600b8054909116905534801561002c57600080fd5b5060405161278a38038061278a83398101604081905261004b916108f0565b80604051806040016040528060098152602001682ab63a3930a0b737b760b91b815250604051806040016040528060048152602001632aa62a2960e11b815250816003908161009a91906109bc565b5060046100a782826109bc565b50505060008163ffffffff16116101115760405162461bcd60e51b815260206004820152602360248201527f5f6c6576656c732073686f756c642062652067726561746572207468616e207a60448201526265726f60e81b60648201526084015b60405180910390fd5b60208163ffffffff16106101675760405162461bcd60e51b815260206004820152601e60248201527f5f6c6576656c732073686f756c64206265206c657373207468616e20333200006044820152606401610108565b6005805463ffffffff191663ffffffff9290921691909117905560005b60055463ffffffff90811690821610156101d0576101a763ffffffff8216610298565b63ffffffff82166000908152600960209081526040808320838052909152902055600101610184565b506005546101e39063ffffffff16610298565b6000808052600a6020527f13da86008ba1c6922daee3e07db95305ef49ebced9f5467a0b8613fcc6b343e3919091555b60055463ffffffff90811690821610156102545761023663ffffffff8216610298565b63ffffffff8216600090815260066020526040902055600101610213565b506005546102679063ffffffff16610298565b6000805260076020527f6d5257204ebe7d88fd91ae87941cb2dd9d8062b64ae5a2bd2d28ec40b9fbf6df5550610a7a565b6000816000036102c957507f2fe54c60d3acabf3343a35b6eba15db4821b340f76e741e2249685ed4899af6c919050565b816001036102f857507f13e37f2d6cb86c78ccc1788607c2b199788c6bb0a615a21f2e7a8e88384222f8919050565b8160020361032757507f217126fa352c326896e8c2803eec8fd63ad50cf65edfef27a41a9e32dc622765919050565b8160030361035657507f0e28a61a9b3e91007d5a9e3ada18e1b24d6d230c618388ee5df34cacd7397eee919050565b8160040361038557507f27953447a6979839536badc5425ed15fadb0e292e9bc36f92f0aa5cfa5013587919050565b816005036103b457507f194191edbfb91d10f6a7afd315f33095410c7801c47175c2df6dc2cce0e3affc919050565b816006036103e357507f1733dece17d71190516dbaf1927936fa643dc7079fc0cc731de9d6845a47741f919050565b8160070361041257507f267855a7dc75db39d81d17f95d0a7aa572bf5ae19f4db0e84221d2b2ef999219919050565b8160080361044157507f1184e11836b4c36ad8238a340ecc0985eeba665327e33e9b0e3641027c27620d919050565b8160090361047057507f0702ab83a135d7f55350ab1bfaa90babd8fc1d2b3e6a7215381a7b2213d6c5ce919050565b81600a0361049f57507f2eecc0de814cfd8c57ce882babb2e30d1da56621aef7a47f3291cffeaec26ad7919050565b81600b036104ce57507f280bc02145c155d5833585b6c7b08501055157dd30ce005319621dc462d33b47919050565b81600c036104fd57507f045132221d1fa0a7f4aed8acd2cbec1e2189b7732ccb2ec272b9c60f0d5afc5b919050565b81600d0361052c57507f27f427ccbf58a44b1270abbe4eda6ba53bd6ac4d88cf1e00a13c4371ce71d366919050565b81600e0361055b57507f1617eaae5064f26e8f8a6493ae92bfded7fde71b65df1ca6d5dcec0df70b2cef919050565b81600f0361058a57507f20c6b400d0ea1b15435703c31c31ee63ad7ba5c8da66cec2796feacea575abca919050565b816010036105b957507f09589ddb438723f53a8e57bdada7c5f8ed67e8fece3889a73618732965645eec919050565b816011036105e757507e64b6a738a5ff537db7b220f3394f0ecbd35bfd355c5425dc1166bf3236079b919050565b8160120361061657507f095de56281b1d5055e897c3574ff790d5ee81dbc5df784ad2d67795e557c9e9f919050565b8160130361064557507f11cf2e2887aa21963a6ec14289183efe4d4c60f14ecd3d6fe0beebdf855a9b63919050565b8160140361067457507f2b0f6fc0179fa65b6f73627c0e1e84c7374d2eaec44c9a48f2571393ea77bcbb919050565b816015036106a357507f16fdb637c2abf9c0f988dbf2fd64258c46fb6a273d537b2cf1603ea460b13279919050565b816016036106d257507f21bbd7e944f6124dad4c376df9cc12e7ca66e47dff703ff7cedb1a454edcf0ff919050565b8160170361070157507f2784f8220b1c963e468f590f137baaa1625b3b92a27ad9b6e84eb0d3454d9962919050565b8160180361073057507f16ace1a65b7534142f8cc1aad810b3d6a7a74ca905d9c275cb98ba57e509fc10919050565b8160190361075f57507f2328068c6a8c24265124debd8fe10d3f29f0665ea725a65e3638f6192a96a013919050565b81601a0361078e57507f2ddb991be1f028022411b4c4d2c22043e5e751c120736f00adf54acab1c9ac14919050565b81601b036107bd57507f0113798410eaeb95056a464f70521eb58377c0155f2fe518a5594d38cc209cc0919050565b81601c036107ec57507f202d1ae61526f0d0d01ef80fb5d4055a7af45721024c2c24cffd6a3798f54d50919050565b81601d0361081b57507f23ab323453748129f2765f79615022f5bebd6f4096a796300aab049a60b0f187919050565b81601e0361084a57507f1f15585f8947e378bcf8bd918716799da909acdb944c57150b1eb4565fda8aa0919050565b81601f0361087957507f1eb064b21055ac6a350cf41eb30e4ce2cb19680217df3a243617c2838185ad06919050565b816020036108a857507f25a90efc49af54a5b7154a6eaba978dcf04796b4984fe54be8d4ea8579e1f1e6919050565b60405162461bcd60e51b815260206004820152601360248201527f496e646578206f7574206f6620626f756e6473000000000000000000000000006044820152606401610108565b60006020828403121561090257600080fd5b815163ffffffff8116811461091657600080fd5b9392505050565b634e487b7160e01b600052604160045260246000fd5b600181811c9082168061094757607f821691505b60208210810361096757634e487b7160e01b600052602260045260246000fd5b50919050565b601f8211156109b757806000526020600020601f840160051c810160208510156109945750805b601f840160051c820191505b818110156109b457600081556001016109a0565b50505b505050565b81516001600160401b038111156109d5576109d561091d565b6109e9816109e38454610933565b8461096d565b6020601f821160018114610a1d5760008315610a055750848201515b600019600385901b1c1916600184901b1784556109b4565b600084815260208120601f198516915b82811015610a4d5787850151825560209485019460019092019101610a2d565b5084821015610a6b5786840151600019600387901b60f8161c191681555b50505050600190811b01905550565b611d0180610a896000396000f3fe608060405234801561001057600080fd5b50600436106101f05760003560e01c806372162b121161010f578063b68ca160116100a2578063dd62ed3e11610071578063dd62ed3e14610491578063e8295588146104ca578063ec732959146104dd578063fa0898c51461050457600080fd5b8063b68ca16014610459578063c89c7024146102a2578063cb63db6c1461046c578063cd87a3b41461048957600080fd5b80639752e918116100de5780639752e918146103fe578063997c645614610416578063a1a8923314610429578063a9059cbb1461044657600080fd5b806372162b12146103a55780637264388a146103b857806395d89b41146103de578063970c2a75146103e657600080fd5b80634438219b1161018757806366cb3dbd1161015657806366cb3dbd1461032c578063688681881461033c5780636fddf9681461035c57806370a082311461037c57600080fd5b80634438219b146102cb5780634be3870f146102de5780634ecf518b146103095780635bb939951461031957600080fd5b8063313ce567116101c3578063313ce5671461025b5780633a8f94dd1461026a57806340c10f191461028f578063414a37ba146102a457600080fd5b806306fdde03146101f5578063095ea7b31461021357806318160ddd1461023657806323b872dd14610248575b600080fd5b6101fd610524565b60405161020a91906118d8565b60405180910390f35b61022661022136600461193d565b6105b6565b604051901515815260200161020a565b6002545b60405190815260200161020a565b610226610256366004611967565b6105d0565b6040516012815260200161020a565b600b5461027a9063ffffffff1681565b60405163ffffffff909116815260200161020a565b6102a261029d36600461193d565b6105f4565b005b61023a7f30644e72e131a029b85045b68181585d2833e84879b9709143e1f593f000000181565b61023a6102d936600461193d565b610602565b61023a6102ec3660046119a4565b600960209081526000928352604080842090915290825290205481565b60055461027a9063ffffffff1681565b61023a6103273660046119a4565b6106a1565b60085461027a9063ffffffff1681565b61023a61034a3660046119c6565b600a6020526000908152604090205481565b61023a61036a3660046119c6565b60076020526000908152604090205481565b61023a61038a3660046119df565b6001600160a01b031660009081526020819052604090205490565b6102266103b33660046119c6565b6107d9565b61027a6103c63660046119df565b600c6020526000908152604090205463ffffffff1681565b6101fd610858565b600b5461027a90640100000000900463ffffffff1681565b60085461027a90640100000000900463ffffffff1681565b6102266104243660046119c6565b610867565b60085463ffffffff1660009081526007602052604090205461023a565b61022661045436600461193d565b6108e6565b61023a6104673660046119a4565b6108f4565b600b5463ffffffff166000908152600a602052604090205461023a565b61027a601e81565b61023a61049f366004611a01565b6001600160a01b03918216600090815260016020908152604080832093909416825291909152205490565b61023a6104d83660046119c6565b610941565b61023a7f2fe54c60d3acabf3343a35b6eba15db4821b340f76e741e2249685ed4899af6c81565b61023a6105123660046119c6565b60066020526000908152604090205481565b60606003805461053390611a34565b80601f016020809104026020016040519081016040528092919081815260200182805461055f90611a34565b80156105ac5780601f10610581576101008083540402835291602001916105ac565b820191906000526020600020905b81548152906001019060200180831161058f57829003601f168201915b5050505050905090565b6000336105c4818585610f94565b60019150505b92915050565b6000336105de858285610fa6565b6105e9858585611025565b506001949350505050565b6105fe8282611084565b5050565b6040805180820182526001600160a01b0384168152602081018390529051632b0aac7f60e11b81526000919073__$75f79a42d9bcbdbb69ad79ebd80f556f39$__9063561558fe90610658908490600401611a6e565b602060405180830381865af4158015610675573d6000803e3d6000fd5b505050506040513d601f19601f820116820180604052508101906106999190611a9f565b949350505050565b60007f30644e72e131a029b85045b68181585d2833e84879b9709143e1f593f000000183106107175760405162461bcd60e51b815260206004820181905260248201527f5f6c6566742073686f756c6420626520696e7369646520746865206669656c6460448201526064015b60405180910390fd5b7f30644e72e131a029b85045b68181585d2833e84879b9709143e1f593f000000182106107905760405162461bcd60e51b815260206004820152602160248201527f5f72696768742073686f756c6420626520696e7369646520746865206669656c6044820152601960fa1b606482015260840161070e565b604080518082018252848152602081018490529051632b0aac7f60e11b815273__$75f79a42d9bcbdbb69ad79ebd80f556f39$__9063561558fe90610658908490600401611a6e565b6000816000036107eb57506000919050565b600b5463ffffffff16805b63ffffffff81166000908152600a6020526040902054840361081c575060019392505050565b8063ffffffff1660000361082e5750601e5b8061083881611ace565b9150508163ffffffff168163ffffffff16036107f6575060009392505050565b60606004805461053390611a34565b60008160000361087957506000919050565b60085463ffffffff16805b63ffffffff811660009081526007602052604090205484036108aa575060019392505050565b8063ffffffff166000036108bc5750601e5b806108c681611ace565b9150508163ffffffff168163ffffffff1603610884575060009392505050565b6000336105c4818585611025565b604080518082018252838152602081018390529051632b0aac7f60e11b81526000919073__$75f79a42d9bcbdbb69ad79ebd80f556f39$__9063561558fe90610658908490600401611a6e565b60008160000361097257507f2fe54c60d3acabf3343a35b6eba15db4821b340f76e741e2249685ed4899af6c919050565b816001036109a157507f13e37f2d6cb86c78ccc1788607c2b199788c6bb0a615a21f2e7a8e88384222f8919050565b816002036109d057507f217126fa352c326896e8c2803eec8fd63ad50cf65edfef27a41a9e32dc622765919050565b816003036109ff57507f0e28a61a9b3e91007d5a9e3ada18e1b24d6d230c618388ee5df34cacd7397eee919050565b81600403610a2e57507f27953447a6979839536badc5425ed15fadb0e292e9bc36f92f0aa5cfa5013587919050565b81600503610a5d57507f194191edbfb91d10f6a7afd315f33095410c7801c47175c2df6dc2cce0e3affc919050565b81600603610a8c57507f1733dece17d71190516dbaf1927936fa643dc7079fc0cc731de9d6845a47741f919050565b81600703610abb57507f267855a7dc75db39d81d17f95d0a7aa572bf5ae19f4db0e84221d2b2ef999219919050565b81600803610aea57507f1184e11836b4c36ad8238a340ecc0985eeba665327e33e9b0e3641027c27620d919050565b81600903610b1957507f0702ab83a135d7f55350ab1bfaa90babd8fc1d2b3e6a7215381a7b2213d6c5ce919050565b81600a03610b4857507f2eecc0de814cfd8c57ce882babb2e30d1da56621aef7a47f3291cffeaec26ad7919050565b81600b03610b7757507f280bc02145c155d5833585b6c7b08501055157dd30ce005319621dc462d33b47919050565b81600c03610ba657507f045132221d1fa0a7f4aed8acd2cbec1e2189b7732ccb2ec272b9c60f0d5afc5b919050565b81600d03610bd557507f27f427ccbf58a44b1270abbe4eda6ba53bd6ac4d88cf1e00a13c4371ce71d366919050565b81600e03610c0457507f1617eaae5064f26e8f8a6493ae92bfded7fde71b65df1ca6d5dcec0df70b2cef919050565b81600f03610c3357507f20c6b400d0ea1b15435703c31c31ee63ad7ba5c8da66cec2796feacea575abca919050565b81601003610c6257507f09589ddb438723f53a8e57bdada7c5f8ed67e8fece3889a73618732965645eec919050565b81601103610c9057507e64b6a738a5ff537db7b220f3394f0ecbd35bfd355c5425dc1166bf3236079b919050565b81601203610cbf57507f095de56281b1d5055e897c3574ff790d5ee81dbc5df784ad2d67795e557c9e9f919050565b81601303610cee57507f11cf2e2887aa21963a6ec14289183efe4d4c60f14ecd3d6fe0beebdf855a9b63919050565b81601403610d1d57507f2b0f6fc0179fa65b6f73627c0e1e84c7374d2eaec44c9a48f2571393ea77bcbb919050565b81601503610d4c57507f16fdb637c2abf9c0f988dbf2fd64258c46fb6a273d537b2cf1603ea460b13279919050565b81601603610d7b57507f21bbd7e944f6124dad4c376df9cc12e7ca66e47dff703ff7cedb1a454edcf0ff919050565b81601703610daa57507f2784f8220b1c963e468f590f137baaa1625b3b92a27ad9b6e84eb0d3454d9962919050565b81601803610dd957507f16ace1a65b7534142f8cc1aad810b3d6a7a74ca905d9c275cb98ba57e509fc10919050565b81601903610e0857507f2328068c6a8c24265124debd8fe10d3f29f0665ea725a65e3638f6192a96a013919050565b81601a03610e3757507f2ddb991be1f028022411b4c4d2c22043e5e751c120736f00adf54acab1c9ac14919050565b81601b03610e6657507f0113798410eaeb95056a464f70521eb58377c0155f2fe518a5594d38cc209cc0919050565b81601c03610e9557507f202d1ae61526f0d0d01ef80fb5d4055a7af45721024c2c24cffd6a3798f54d50919050565b81601d03610ec457507f23ab323453748129f2765f79615022f5bebd6f4096a796300aab049a60b0f187919050565b81601e03610ef357507f1f15585f8947e378bcf8bd918716799da909acdb944c57150b1eb4565fda8aa0919050565b81601f03610f2257507f1eb064b21055ac6a350cf41eb30e4ce2cb19680217df3a243617c2838185ad06919050565b81602003610f5157507f25a90efc49af54a5b7154a6eaba978dcf04796b4984fe54be8d4ea8579e1f1e6919050565b60405162461bcd60e51b8152602060048201526013602482015272496e646578206f7574206f6620626f756e647360681b604482015260640161070e565b919050565b610fa183838360016110ba565b505050565b6001600160a01b0383811660009081526001602090815260408083209386168352929052205460001981101561101f578181101561101057604051637dc7a0d960e11b81526001600160a01b0384166004820152602481018290526044810183905260640161070e565b61101f848484840360006110ba565b50505050565b6001600160a01b03831661104f57604051634b637e8f60e11b81526000600482015260240161070e565b6001600160a01b0382166110795760405163ec442f0560e01b81526000600482015260240161070e565b610fa183838361118f565b6001600160a01b0382166110ae5760405163ec442f0560e01b81526000600482015260240161070e565b6105fe6000838361118f565b6001600160a01b0384166110e45760405163e602df0560e01b81526000600482015260240161070e565b6001600160a01b03831661110e57604051634a1406b160e11b81526000600482015260240161070e565b6001600160a01b038085166000908152600160209081526040808320938716835292905220829055801561101f57826001600160a01b0316846001600160a01b03167f8c5be1e5ebec7d5bd14f71427d1e84f3dd0314c0f7b2291e5b200ac8c7c3b9258460405161118191815260200190565b60405180910390a350505050565b6001600160a01b0383166111ba5780600260008282546111af9190611aee565b9091555061122c9050565b6001600160a01b0383166000908152602081905260409020548181101561120d5760405163391434e360e21b81526001600160a01b0385166004820152602481018290526044810183905260640161070e565b6001600160a01b03841660009081526020819052604090209082900390555b6001600160a01b03821661124857600280548290039055611274565b6001600160a01b0382166000908152602081905260409020805482019081905561127283826112c6565b505b816001600160a01b0316836001600160a01b03167fddf252ad1be2c89b69c2b068fc378daa952ba7f163c4a11628f55a4df523b3ef836040516112b991815260200190565b60405180910390a3505050565b6001600160a01b0382166000908152600c602052604081205463ffffffff16906112f08484610602565b90508163ffffffff1660000361134e57600061130b82611362565b9050611318816001611b01565b6001600160a01b0386166000908152600c60205260409020805463ffffffff191663ffffffff929092169190911790555061101f565b61101f8161135d600185611b1d565b6115f6565b600b5460055460009163ffffffff64010000000090910481169161138891166002611c4d565b63ffffffff168163ffffffff16036113fb5760405162461bcd60e51b815260206004820152603060248201527f4d65726b6c6520747265652069732066756c6c2e204e6f206d6f7265206c656160448201526f1d995cc818d85b88189948185919195960821b606482015260840161070e565b8083600080805b60055463ffffffff90811690821610156115325763ffffffff8082166000908152600960209081526040808320938916835292905220849055611446600286611c7b565b63ffffffff1660000361146c578392506114658163ffffffff16610941565b9150611511565b63ffffffff811660009081526009602052604081209061148d600188611b1d565b63ffffffff168152602001908152602001600020549250839150826000036115115760405162461bcd60e51b815260206004820152603160248201527f63616e7420757365206120302076616c75652066726f6d20696e636f6d42616c604482015270416c6c46696c6c6564537562747265657360781b606482015260840161070e565b61151b83836106a1565b9350611528600286611ca3565b9450600101611402565b50600b54600090601e9061154d9063ffffffff166001611b01565b6115579190611c7b565b600b805463ffffffff191663ffffffff83169081179091556000908152600a60205260409020859055905061158d866001611b01565b600b805467ffffffff00000000191664010000000063ffffffff9384160217905560408051918816825242602083015289917f637a5aaba41d5c887c8292afda36e44fb2ddab99ecdf6618688ffd6114894539910160405180910390a250939695505050505050565b600b5463ffffffff6401000000009091048116908216106116595760405162461bcd60e51b815260206004820152601f60248201527f63616e206f6e6c7920757064617465206578697374696e672076616c75657300604482015260640161070e565b8082600080805b60055463ffffffff90811690821610156118405763ffffffff80821660009081526009602090815260408083209389168352929052208490556116a4600286611c7b565b63ffffffff166000036117785763ffffffff81166000908152600960205260408120859450906116d5876001611b01565b63ffffffff16815260200190815260200160002054915081600003611706576117038163ffffffff16610941565b91505b816000036117735760405162461bcd60e51b815260206004820152603460248201527f72696768742063616e7420626520302076616c75652066726f6d20696e636f6d60448201527342616c416c6c46696c6c6564537562747265657360601b606482015260840161070e565b61181f565b63ffffffff8116600090815260096020526040812090611799600188611b1d565b63ffffffff1681526020019081526020016000205492508391508260000361181f5760405162461bcd60e51b815260206004820152603360248201527f6c6566742063616e7420626520302076616c75652066726f6d20696e636f6d42604482015272616c416c6c46696c6c6564537562747265657360681b606482015260840161070e565b61182983836106a1565b9350611836600286611ca3565b9450600101611660565b50600b54600090601e9061185b9063ffffffff166001611b01565b6118659190611c7b565b600b805463ffffffff191663ffffffff8381169182179092556000908152600a60209081526040918290208890558151928a168352429083015291925088917fe91751ae15e5bd4bb233331b7681684c1e0e29af86cd07cc247f960173365137910160405180910390a250505050505050565b602081526000825180602084015260005b8181101561190657602081860181015160408684010152016118e9565b506000604082850101526040601f19601f83011684010191505092915050565b80356001600160a01b0381168114610f8f57600080fd5b6000806040838503121561195057600080fd5b61195983611926565b946020939093013593505050565b60008060006060848603121561197c57600080fd5b61198584611926565b925061199360208501611926565b929592945050506040919091013590565b600080604083850312156119b757600080fd5b50508035926020909101359150565b6000602082840312156119d857600080fd5b5035919050565b6000602082840312156119f157600080fd5b6119fa82611926565b9392505050565b60008060408385031215611a1457600080fd5b611a1d83611926565b9150611a2b60208401611926565b90509250929050565b600181811c90821680611a4857607f821691505b602082108103611a6857634e487b7160e01b600052602260045260246000fd5b50919050565b60408101818360005b6002811015611a96578151835260209283019290910190600101611a77565b50505092915050565b600060208284031215611ab157600080fd5b5051919050565b634e487b7160e01b600052601160045260246000fd5b600063ffffffff821680611ae457611ae4611ab8565b6000190192915050565b808201808211156105ca576105ca611ab8565b63ffffffff81811683821601908111156105ca576105ca611ab8565b63ffffffff82811682821603908111156105ca576105ca611ab8565b6001815b6001841115611b7457808504811115611b5857611b58611ab8565b6001841615611b6657908102905b60019390931c928002611b3d565b935093915050565b600082611b8b575060016105ca565b81611b98575060006105ca565b8160018114611bae5760028114611bb857611be9565b60019150506105ca565b60ff841115611bc957611bc9611ab8565b6001841b915063ffffffff821115611be357611be3611ab8565b506105ca565b5060208310610133831016604e8410600b8410161715611c20575081810a63ffffffff811115611c1b57611c1b611ab8565b6105ca565b611c2f63ffffffff8484611b39565b8063ffffffff04821115611c4557611c45611ab8565b029392505050565b60006119fa63ffffffff841663ffffffff8416611b7c565b634e487b7160e01b600052601260045260246000fd5b600063ffffffff831680611c9157611c91611c65565b8063ffffffff84160691505092915050565b600063ffffffff831680611cb957611cb9611c65565b8063ffffffff8416049150509291505056fea26469706673582212205d17dfe797f51505b3716271357f8708367bf461e156134109101a1c6c0cc44564736f6c634300081c0033",
  "linkReferences": {
    "poseidon-solidity/PoseidonT3.sol": {
      "PoseidonT3": [
        {
          "length": 20,
          "start": 4281
        },
        {
          "length": 20,
          "start": 4666
        },
        {
          "length": 20,
          "start": 5026
        }
      ]
    }
  },
  "deployedLinkReferences": {
    "poseidon-solidity/PoseidonT3.sol": {
      "PoseidonT3": [
        {
          "length": 20,
          "start": 1584
        },
        {
          "length": 20,
          "start": 1969
        },
        {
          "length": 20,
          "start": 2329
        }
      ]
    }
  }
}